:040000000CEF00F011
:10000800FACF80F0FBCF81F0E9CF82F0A5ED40F088
:1000180028EF45F0CC0E0201136F010E0201146F98
:10002800E9EF0CF0250E02012619D8B406D002011A
:1000380026513AEC49F0E9EF0CF0000E02011C6F72
:10004800000E1B6F000E0201286F000E276F13D0E1
:10005800020127870BD00201278108D002012783DC
:1000680005D00201288702D0020127850101CA4B69
:10007800CB2B01D017D0CAC1F6FFCBC1F7FF0800C0
:10008800F550200AD8B4E7D7030AD8B4EAD7080A43
:10009800D8B4E4D7060AD8B4DBD71D0AD8B4E4D755
:1000A80001D0E9D7020127A303D00201279100D08C
:1000B800020127A703D00201279500D0CAC1F6FF85
:1000C800CBC1F7FF0800F55018EC47F0D8A043D093
:1000D800000E02011C6F000E1B6F00D01BC28EF0B9
:1000E8001CC28FF0000E0001916F0A0E906F7FEC1A
:1000F80046F08EC01BF28FC01CF2D00E0101D86FE3
:10010800FF0E0101D96FCAC1F6FFCBC1F7FF080086
:10011800F5500101DA6FDB6B0101D8510101DA27D3
:100128000101D9510101DB230101DA5102011B2729
:100138000101DB5102011C230101CA4BCB2BCAC1AF
:10014800F6FFCBC1F7FF0800F55018EC47F0D8A030
:1001580002D0C4D700D0CAC1F6FFCBC1F7FF080050
:10016800F5502E0AD8A43BD00201288D0101CA4BB4
:10017800CB2B000E0201256F000E246F24D024C261
:100188008EF025C28FF0000E0001916F0A0E906F5D
:100198007FEC46F0CAC1F6FFCBC1F7FF0800F55067
:1001A80000018E27000E00018F23D00E00018E253E
:1001B8000201246FFF0E00018F210201256F01014A
:1001C800CA4BCB2B00D0CAC1F6FFCBC1F7FF080042
:1001D800F55018EC47F0D8A01FD0D1D71DD0000E8D
:1001E8000201256F000E246F0201288915D0FAEF4D
:1001F8000CF0020128853AD00201278B02012881E0
:1002080035D00201278B0201288330D00201278FC5
:100218002DD0E9EF0CF02AD0CAC1F6FFCBC1F7FF09
:100228000101CA4BCB2B0800F5CF26F2020126515B
:10023800000AD8B4FAEF0CF0450AD8B4DDD7020AA0
:10024800D8B4DFD7230AD8B411D0010AD8B4D6D786
:10025800030AD8B4CED7010AD8B4D5D70E0AD8B471
:1002680005D0110AD8B4D2D7E9EF0CF0070E020175
:100278002815D8B41AEF0AF0020128A906D0000EF2
:100288000201256F060E246F00D013C2D9FF14C2D5
:10029800DAFFDECF21F2DECF22F2DDCF23F2030E2A
:1002A80002011327000E1423020123AF12D021C22A
:1002B800C3F022C2C4F023C2C5F000EC47F0C3C0AB
:1002C80021F2C4C022F2C5C023F2030E0201271393
:1002D80000D0000E02011A6F000E196F02012151A1
:1002E8000201221102012311D8B49DD0820E01010E
:1002F800D86FFF0E0101D96F21C2DAF122C2DBF1FA
:1003080023C2DCF124C2DDF1100E06D00101D89021
:10031800DD33DC33DB33DA33E82EF8D70101DA5189
:100328000101D8250201196F000E0101D92102012E
:100338001A6F02011907D8A01A0719C28EF01AC23B
:100348008FF0000E0001916F030E906F7FEC46F066
:100358008EC019F28FC01AF219C294F01AC295F021
:10036800000E0001976F0A0E966F74EC3AF094C075
:1003780019F295C01AF202011AAF05D00201190745
:10038800D8A01A0700D00201195100085EEC1BF032
:10039800C0C015F2C1C016F2C2C017F215C29CF057
:1003A80016C29DF017C29EF021C29FF022C2A0F093
:1003B80023C2A1F0DEEC2EF09CC015F29DC016F20F
:1003C8009EC017F215C2D6F016C2D7F017C2D8F0E1
:1003D800000E0001D96F800E0001DA6F3F0E000198
:1003E800DB6FDCEC3AF00001D8B005D00201190748
:1003F800D8A01A0718D015C2D6F016C2D7F017C25F
:10040800D8F0000E0001D96F200E0001DA6F410EFE
:100418000001DB6FDCEC3AF00001D8A004D0020147
:10042800194B1A2B00D002011ABF07D002011A512A
:1004380008E102011905D8B004D0010E0201266FA7
:1004480002D019C226F2020128B120D0020128A345
:10045800C6D302011AAF08D0FC0E0201195DFF0EC7
:1004680002011A59D8A012D0020124510201195DC3
:1004780002011A51800A0101D86F02012551800A30
:100488000101D859D8B002D0AAD300D00201245112
:1004980002012511D8B408D0020128A305D0020111
:1004A8002407D8A0250700D00201255105E1090E2F
:1004B8000201245DD8A004D0080E0201266F03D0E3
:1004C80024C226F200D002012151020122110201A8
:1004D8002311D8B4FDD021C2C7F022C2C8F023C26C
:1004E800C9F0020126510008020119255EEC1BF033
:1004F800C0C0CAF0C1C0CBF0C2C0CCF0D1EC30F063
:10050800C7C021F2C8C022F2C9C023F221C2CDF06F
:1005180022C2CEF023C2CFF021C2ABF022C2ACF08F
:1005280023C2ADF072EC31F0ABC0BAF0ACC0BBF096
:10053800ADC0BCF0AEC0BDF06BEC41F0BAC0C3F0CA
:10054800BBC0C4F0BCC0C5F000EC47F0C3C0CAF0E3
:10055800C4C0CBF0C5C0CCF00FEC23F0CAC0D6F0B5
:10056800CBC0D7F0CCC0D8F0000E0001D96F000E78
:100578000001DA6F3F0E0001DB6FDCEC3AF000019E
:10058800D8A018D021C2CAF022C2CBF023C2CCF026
:10059800000E0001CD6F000E0001CE6F3F0E00016E
:1005A800CF6F0FEC23F0CAC021F2CBC022F2CCC02F
:1005B80023F200D026C2D8F10101D96BD8BFD907E0
:1005C8000101D890D837D9370101D890D837D93711
:1005D800040E0101D827000ED9230E0E0101D825DB
:1005E800F66EFE0ED921F76E21C2ABF022C2ACF036
:1005F80023C2ADF072EC31F00900F5500001AB5D9B
:100608000900F5500001AC590900F5500001AD5939
:100618000900F5500001AE59D8A01BD021C29CF0AA
:1006280022C29DF023C29EF0CD0E00019F6FCC0E1A
:100638000001A06F3D0E0001A16FDEEC2EF09CC002
:1006480021F29DC022F29EC023F20201194B1A2BFF
:100658003FD002012651040D0E0EF324F66EFE0E55
:10066800F420F76E21C2ABF022C2ACF023C2ADF089
:1006780072EC31F00900F5500001AB5D0900F5504E
:100688000001AC590900F5500001AD590900F550B9
:100698000001AE59D8B01CD021C29CF022C29DF0F6
:1006A80023C29EF0000E00019F6F200E0001A06F74
:1006B800410E0001A16FDEEC2EF09CC021F29DC01E
:1006C80022F29EC023F202011907D8A01A0700D00F
:1006D800020128A39DD0020128B79AD0020125BFA4
:1006E8000ED00201255105E10B0E0201245DD8A0B0
:1006F80006D0000E0201256F0A0E246F00D021C219
:10070800ABF022C2ACF023C2ADF072EC31F0ABC05A
:100718001DF2ACC01EF2ADC01FF2AEC020F220D058
:1007280002012407D8A025071DC28EF01EC28FF033
:100738001FC290F020C291F00A0E0001926F000EC5
:10074800936F000E946F000E956F43EC3BF08EC0D4
:100758001DF28FC01EF290C01FF291C020F200D08F
:1007680002011D5102011E1102011F110201201177
:10077800D8B41FD01DC29BF01EC29CF01FC29DF0B2
:1007880020C29EF00A0E00019F6F000EA06F000E9F
:10079800A16F000EA26F8EEC3EF000019B5100018C
:1007A8009C1100019D1100019E11D8A402D0B8D758
:1007B80000D002012551800A0101D86F020126519B
:1007C8000201245D800E020126BF7F0E0101D85967
:1007D800D8B01ED021C2C7F022C2C8F023C2C9F0C7
:1007E800020124510008020126255EEC1BF0C0C05E
:1007F800CAF0C1C0CBF0C2C0CCF0D1EC30F0C7C059
:1008080021F2C8C022F2C9C023F224C226F200D0C5
:10081800050E020124250101D86F000E02012521D1
:100828000101D96F0101D85102011B5F0101D951A2
:1008380002011C5B0201245102012511D8A403D036
:10084800020128A705D002011B07D8A01C0700D069
:10085800030E020127150101D86F000E02012815A9
:100868000101D96F0101D8510101D911D8B405D0BE
:1008780002011B07D8A01C0700D0020127A531D010
:10088800020127A313D0020127B105D0000E0201EF
:10089800056F2B0E04D0000E0201056F2D0E046F9C
:1008A80000D0020104513AEC49F00FD0020127A10F
:1008B8000CD0200E3AEC49F008D0300E3AEC49F052
:1008C80002011B07D8A01C0700D002011CBF3DD0A5
:1008D80002011C51F2E102011B05D8A036D0EDD768
:1008E80034D0020127A70AD013D008D0200E3AEC42
:1008F80049F002011B07D8A01C0700D002011CBF49
:1009080007D002011C51F2E102011B05D8B0EED755
:10091800020127A313D0020127B105D0000E02015E
:10092800076F2B0E04D0000E0201076F2D0E066F05
:1009380000D0020106513AEC49F007D0020127A184
:1009480004D0200E3AEC49F000D021C2ABF022C20C
:10095800ACF023C2ADF072EC31F0ABC01DF2ACC00C
:100968001EF2ADC01FF2AEC020F21DC28EF01EC234
:100978008FF01FC290F020C291F002012651040DA1
:100988000E0EF324F66EFE0EF420F76E0900F5CF76
:1009980092F00900F5CF93F00900F5CF94F00A0022
:1009A800F5CF95F043EC3BF000018E51300F3AEC57
:1009B80049F01DC29BF01EC29CF01FC29DF020C2D0
:1009C8009EF002012651040D0E0EF324F66EFE0E63
:1009D800F420F76E0900F5CF9FF00900F5CFA0F0DD
:1009E8000900F5CFA1F00A00F5CFA2F08EEC3EF099
:1009F8009BC01DF29CC01EF29DC01FF29EC020F23B
:100A08000201245102012511D8A403D0020128A70C
:100A180088D02E0E3AEC49F0020126510201245FDB
:100A2800000E020126BFFF0E0201255B64D0020101
:100A380028A315D002011D5102011E1102011F1128
:100A480002012011D8A40BD0000E0201266F02016A
:100A580026510201246F256B24BF25075CD01DC2D7
:100A68008EF01EC28FF01FC290F020C291F00201DA
:100A78002651040D0E0EF324F66EFE0EF420F76ECA
:100A88000900F5CF92F00900F5CF93F00900F5CFF2
:100A980094F00A00F5CF95F043EC3BF000018E513D
:100AA800300F3AEC49F01DC29BF01EC29CF01FC2E9
:100AB8009DF020C29EF002012651040D0E0EF32473
:100AC800F66EFE0EF420F76E0900F5CF9FF00900D0
:100AD800F5CFA0F00900F5CFA1F00A00F5CFA2F0FC
:100AE8008EEC3EF09BC01DF29CC01EF29DC01FF212
:100AF8009EC020F200D00201260702012629D8B4A0
:100B08000AD095D708D0300E3AEC49F002012407F4
:100B1800D8A0250700D00201245102012511D8A42C
:100B2800F2D7020127AB04D0450E3AEC49F004D0C5
:100B3800650E3AEC49F000D002011AAF09D0020163
:100B4800196D1A1FD8B01A2B2D0E3AEC49F004D0A3
:100B58002B0E3AEC49F000D019C294F01AC295F065
:100B6800000E0001976F0A0E966F74EC3AF00001C0
:100B78009451300F3AEC49F019C2BAF01AC2BBF0DE
:100B8800000E0001BD6F0A0EBC6F87EC3DF000013E
:100B9800BA51300F3AEC49F0020127A7E9EF0CF0FF
:100BA80002011CBFE9EF0CF002011C5107E1020130
:100BB8001B05D8B003D0E9EF0CF000D0200E3AECBA
:100BC80049F002011B07D8A01C0702011B510201B2
:100BD8001C11D8B4E9EF0CF0F1D7E9EF0CF00201E1
:100BE80028A311D102011AAF13D0010E0201192551
:100BF8000101D86F000E02011A210101D96F01010C
:100C0800D8510201245F0101D9510201255B00D0AE
:100C180021C2ABF022C2ACF023C2ADF072EC31F0CD
:100C2800ABC01DF2ACC01EF2ADC01FF2AEC020F2C8
:100C3800000E0201266F0A0E02012619D8B422D02E
:100C480001D020D002012651040D0E0EF324F66EB9
:100C5800FE0EF420F76E0900F55002011D5D090033
:100C6800F55002011E590900F55002011F590900EB
:100C7800F55002012059D8A005D001D003D00201B7
:100C8800262BD9D7020126510201245F000E02014A
:100C980026BFFF0E0201255B020125BF08D0020115
:100CA80025511DE10D0E0201245DD8B018D021C2D6
:100CB800CAF022C2CBF023C2CCF002012451BAEC14
:100CC80021F0C0C0CDF0C1C0CEF0C2C0CFF00FEC53
:100CD80023F0CAC021F2CBC022F2CCC023F2020119
:100CE80024515EEC1BF0C0C010F2C1C011F2C2C0AA
:100CF80012F210C29CF011C29DF012C29EF021C2E5
:100D0800CDF022C2CEF023C2CFF01DC2BAF01EC26F
:100D1800BBF01FC2BCF020C2BDF06BEC41F0BAC002
:100D2800C3F0BBC0C4F0BCC0C5F000EC47F0C3C002
:100D3800CAF0C4C0CBF0C5C0CCF00FEC23F0CAC0D9
:100D48009FF0CBC0A0F0CCC0A1F0DEEC2EF09CC090
:100D580010F29DC011F29EC012F210C2ABF011C287
:100D6800ACF012C2ADF072EC31F0ABC01DF2ACC009
:100D78001EF2ADC01FF2AEC020F220D01DC28EF010
:100D88001EC28FF01FC290F020C291F00A0E00011F
:100D9800926F000E936F000E946F000E956F43ECE8
:100DA8003BF08EC01DF28FC01EF290C01FF291C0A2
:100DB80020F202012407D8A0250700D002012451FF
:100DC80002012511D8B443D01DC29BF01EC29CF06D
:100DD8001FC29DF020C29EF00A0E00019F6F000EF8
:100DE800A06F000EA16F000EA26F8EEC3EF0000106
:100DF8009B5100019C1100019D1100019E11D8A476
:100E080026D0BCD724D0020125BF08D00201255125
:100E18001EE10D0E0201245DD8B019D021C2CAF01E
:100E280022C2CBF023C2CCF002012451BAEC21F04B
:100E3800C0C0CDF0C1C0CEF0C2C0CFF00FEC23F0DF
:100E4800CAC021F2CBC022F2CCC023F200D00201EA
:100E58001ABF08D002011A512CE10A0E0201195DCD
:100E6800D8B027D002012151020122110201231119
:100E7800D8B47FD021C2ABF022C2ACF023C2ADF00F
:100E880072EC31F00001AB510001AC110001AD1161
:100E98000001AE11D8A46DD002011ABF6AD00201B8
:100EA8001A5107E1020E0201195DD8B002D061D0D3
:100EB80000D015C2D6F016C2D7F017C2D8F0700EFF
:100EC8000001D96F890E0001DA6F400E0001DB6F57
:100ED800DCEC3AF00001D8B003D00201F70E02D0E2
:100EE8000201F80E1927FF0E1A2300D0020119512A
:100EF8005EEC1BF0C0C015F2C1C016F2C2C017F2FA
:100F080017D021C28EF022C28FF023C290F015C2F2
:100F180091F016C292F017C293F02CEC2EF08EC00E
:100F28001DF28FC01EF290C01FF291C020F217D0A0
:100F380021C28EF022C28FF023C290F015C291F028
:100F480016C292F017C293F071EC2DF08EC01DF20C
:100F58008FC01EF290C01FF291C020F200D0000E88
:100F68000201216F000E0201226F000E0201236FA1
:100F780034D021C2ABF022C2ACF023C2ADF072EC87
:100F880031F0ABC01DF2ACC01EF2ADC01FF2AEC056
:100F980020F221C2D6F022C2D7F023C2D8F01DC257
:100FA800BAF01EC2BBF01FC2BCF020C2BDF06BEC91
:100FB80041F0BAC0D9F0BBC0DAF0BCC0DBF0D9EC64
:100FC80044F0D6C021F2D7C022F2D8C023F2000ED6
:100FD80002011A6F000E196F00D0010E0201266F70
:100FE8000A0E02012619D8B422D001D020D002015D
:100FF8002651040D0E0EF324F66EFE0EF420F76E45
:101008000900F55002011D5D0900F55002011E5945
:101018000900F55002011F590900F5500201205935
:10102800D8A005D001D003D00201262BD9D726C2DB
:10103800D8F10101D96BD8BFD907020124510101A8
:10104800D827020125510101D923020119510101B3
:10105800D82702011A510101D9230101D8510201EF
:101068001B5F0101D95102011C5B020128B706D0A0
:101078000201245102012511D8B405D002011B0731
:10108800D8A01C0700D0030E020127150101D86F54
:10109800000E020128150101D96F0101D851010183
:1010A800D911D8B405D002011B07D8A01C0700D05D
:1010B800020127A531D0020127A313D0020127B1CD
:1010C80005D0000E0201096F2B0E04D0000E02019C
:1010D800096F2D0E086F00D0020108513AEC49F053
:1010E8000FD0020127A10CD0200E3AEC49F008D00D
:1010F800300E3AEC49F002011B07D8A01C0700D0BB
:1011080002011CBF85D002011C51F2E102011B053E
:10111800D8A07ED0EDD77CD0020127A70AD013D063
:1011280008D0200E3AEC49F002011B07D8A01C0792
:1011380000D002011CBF07D002011C51F2E10201DC
:101148001B05D8B0EED7020127A313D0020127B19F
:1011580005D0000E02010B6F2B0E04D0000E020109
:101168000B6F2D0E0A6F00D002010A513AEC49F0BC
:101178004FD0020127A14CD0200E3AEC49F048D0BC
:101188001DC28EF01EC28FF01FC290F020C291F0D7
:1011980002012651040D0E0EF324F66EFE0EF42005
:1011A800F76E0900F5CF92F00900F5CF93F009002A
:1011B800F5CF94F00A00F5CF95F043EC3BF08EC0E4
:1011C80015F28FC016F290C017F291C018F215C22E
:1011D8009BF016C29CF017C29DF018C29EF00A0E32
:1011E80000019F6F000EA06F000EA16F000EA26F8E
:1011F8008EEC3EF09BC015F29CC016F29DC017F213
:101208009EC018F202011551300F3AEC49F000D097
:101218000201260702012629D8B40AD0B1D708D07E
:10122800300E3AEC49F002011907D8A01A0700D08D
:1012380002011ABF07D002011A51F2E10201190591
:10124800D8B0EED7020125BF0CD00201255105E127
:10125800090E0201245DD8A004D0080E0201266FF1
:1012680003D024C226F200D0020126510201245FD5
:10127800000E020126BFFF0E0201255B0201265166
:101288000201D8A403D0020128A704D02E0E3AECFC
:1012980049F000D0020126515EEC1BF0C0C000F2FC
:1012A800C1C001F2C2C002F221C29FF022C2A0F066
:1012B80023C2A1F000C29CF001C29DF002C29EF0C0
:1012C800DEEC2EF09CC0ABF09DC0ACF09EC0ADF043
:1012D80072EC31F0ABC01DF2ACC01EF2ADC01FF213
:1012E800AEC020F26FD01DC28EF01EC28FF01FC29A
:1012F80090F020C291F002012651040D0E0EF32445
:10130800F66EFE0EF420F76E0900F5CF92F0090094
:10131800F5CF93F00900F5CF94F00A00F5CF95F0DA
:1013280043EC3BF08EC015F28FC016F290C017F256
:1013380091C018F215C29BF016C29CF017C29DF01E
:1013480018C29EF00A0E00019F6F000EA06F000EDB
:10135800A16F000EA26F8EEC3EF09BC015F29CC0F0
:1013680016F29DC017F29EC018F202011551300FF7
:101378003AEC49F01DC29BF01EC29CF01FC29DF0C2
:1013880020C29EF002012651040D0E0EF324F66EC3
:10139800FE0EF420F76E0900F5CF9FF00900F5CF97
:1013A800A0F00900F5CFA1F00A00F5CFA2F08EEC6D
:1013B8003EF09BC01DF29CC01EF29DC01FF29EC055
:1013C80020F200D00201260702012629D8B40AD04B
:1013D8008AD708D0300E3AEC49F002012407D8A089
:1013E800250700D00201245102012511D8A4F2D703
:1013F800020127A7EAD202011CBFE7D202011C5151
:1014080006E102011B05D8B002D0DFD200D0200EC1
:101418003AEC49F002011B07D8A01C0702011B5136
:1014280002011C11D8B4D1D2F2D7CFD2020127BF02
:1014380023D013C2D9FF14C2DAFFDECF1DF2DDCFED
:101448001EF20201000E1EBFFF0E1F6F206F020E5C
:1014580002011327000E1423020120AF22D0030E2D
:10146800020127130201201F1F1F1E1F1D6D000EE2
:101478001E231F23202315D013C2D9FF14C2DAFF5D
:10148800DECFD8F1DDCFD9F1D8C11DF2D9C11EF216
:1014980002011F6B206B020E02011327000E14239A
:1014A80000D00201245102012511D8A464D0020100
:1014B8001D5102011E1102011F1102012011D8A4A1
:1014C8005AD00201244B252B56D0010E0201266F5B
:1014D8000A0E02012619D8B458D001D056D00201FC
:1014E8002651040D0E0EF324F66EFE0EF420F76E50
:1014F8000900F55002011D5D0900F55002011E5951
:101508000900F55002011F590900F5500201205940
:10151800D8A03BD001D039D00201262BD9D735D05D
:10152800010E0201266F080E02012619D8B42DD02B
:1015380001D02BD002012651040D840EF324F66E3F
:10154800FE0EF420F76E0900F55002011D5D09003A
:10155800F55002011E590900F55002011F590900F2
:10156800F55002012059D8A010D001D00ED00201A8
:10157800262BD9D70AD002012751800B000AD8B4EC
:10158800A4D7800AD8B4CCD700D0800E020126BFD9
:101598007F0E0101D86F020124510201265D02016C
:1015A8002551800A0101D859D8B003D024C226F2A7
:1015B80019D002012551800A0101D86F0201265174
:1015C8000201245D800E020126BF7F0E0101D85959
:1015D800D8B008D0020126510201246F256B24BF20
:1015E800250700D002011B5102011C11D8B415D0E7
:1015F800030E020127150101D86F000E02012815FC
:101608000101D96F0101D8510101D911D8B405D010
:1016180002011B07D8A01C0700D0020128AD1FD06B
:1016280002011B510201245D02012551800A0101BA
:10163800D86F02011C51800A0101D859D8B009D0CD
:101648000201245102011B5F0201255102011C5BAA
:1016580006D0000E02011C6F000E1B6F00D0800E1A
:101668000101D86F080E0101D96F27C2DAF128C22B
:10167800DBF10101D8510101DA170101D95101014A
:10168800DB17800E0101DA191CE1080E0101DB19D4
:10169800D8A417D002011CBF0ED002011C5105E1CD
:1016A800030E02011B5DD8A006D00201FE0E1B2707
:1016B800FF0E1C2306D0000E02011C6F000E1B6FCC
:1016C80000D0800E020126BF7F0E0101D86F0201F3
:1016D8001B510201265D02011C51800A0101D859E3
:1016E800D8B00BD00201265102011B5F000E020187
:1016F80026BFFF0E02011C5B06D0000E02011C6F04
:10170800000E1B6F00D0020127A554D0020127A3A9
:1017180013D0020127B105D0000E02010D6F2B0E68
:1017280004D0000E02010D6F2D0E0C6F00D00201C7
:101738000C513AEC49F029D0020127A104D0200E1F
:101748003AEC49F022D0800E0101D86F080E010151
:10175800D96F27C2DAF128C2DBF10101D8510101A2
:10176800DA170101D9510101DB17800E0101DA19DD
:101778000CE1080E0101DB19D8A407D0300E3AECB1
:1017880049F0780E3AEC49F000D002011B510201F1
:101798001C11D8B4F1D0300E3AEC49F002011B0705
:1017A800D8A01C0702011B5102011C11D8B4E4D0B7
:1017B800F2D7E2D002011B5102011C11D8B410D09B
:1017C800020127B70DD0200E3AEC49F002011B07A1
:1017D800D8A01C0702011B5102011C11D8A4F3D781
:1017E800020127A313D0020127B105D0000E020180
:1017F8000F6F2B0E04D0000E02010F6F2D0E0E6F0F
:1018080000D002010E513AEC49F007D0020127A19D
:1018180004D0200E3AEC49F000D0800E0101D86FB8
:10182800080E0101D96F27C2DAF128C2DBF10101E4
:10183800D8510101DA170101D9510101DB17800ED6
:101848000101DA1904E1080E0101DB19D8A494D0CA
:10185800300E3AEC49F0780E3AEC49F08DD07DD054
:1018680024C2D8F125C2D9F10101D890D837D93787
:101878000101D890D837D9370E0E0101D825F66E58
:10188800FE0ED921F76E0900F5CF92F00900F5CFC9
:1018980093F00900F5CF94F00A00F5CF95F01DC23A
:1018A8008EF01EC28FF01FC290F020C291F043EC60
:1018B8003BF08EC09BF08FC09CF090C09DF091C013
:1018C8009EF00A0E00019F6F000EA06F000EA16F20
:1018D800000EA26F8EEC3EF000019B51300F02010A
:1018E800266F45D01DC28EF01EC28FF01FC290F029
:1018F80020C291F024C2D8F125C2D9F10101D890B3
:10190800D837D9370101D890D837D937840E010193
:10191800D825F66EFE0ED921F76E0900F5CF92F0A4
:101928000900F5CF93F00900F5CF94F00A00F5CF40
:1019380095F043EC3BF000018E510F0B0201036F51
:1019480002010351010D560EF324F66EFF0EF4202A
:10195800F76E0800F5CF26F20AD002012751800B56
:10196800000AD8B47DD7800AD8B4BCD700D0020109
:1019780026513AEC49F000D002012407D8A02507E7
:1019880002012429EAE102012529D8A4E6D70201A7
:1019980027A71BD002011CBF18D002011C5106E169
:1019A80002011B05D8B002D010D000D0200E3AECAE
:1019B80049F002011B07D8A01C0702011B510201B4
:1019C8001C11D8B402D0F2D700D0CAC1F6FFCBC1DF
:1019D800F7FF0101CA4BCB2B0800F5CF26F2020115
:1019E8002651D8B403D016EF00F000D012004C0EE8
:1019F800656E000E666EA1EF17F0250E7818D8B444
:101A080005D0785049EC49F0A1EF17F0000E6E6E42
:101A1800000E6D6E000E7A6E000E796E0DD079860E
:101A280007D0798005D0798203D07A8601D079846D
:101A38004A4A4B2A01D017D04AC0F6FF4BC0F7FFDD
:101A48000800F550200AD8B4ECD7030AD8B4EDD76B
:101A5800080AD8B4E8D7060AD8B4E1D71D0AD8B41A
:101A6800E6D701D0E9D779A202D0799000D079A63B
:101A780002D0799400D04AC0F6FF4BC0F7FF0800A7
:101A8800F550CCEC47F0D8A035D0000E6E6E000EA5
:101A98006D6E00D06DC00FF06EC010F0000E126EAB
:101AA8000A0E116E95EC47F00FC06DF010C06EF085
:101AB800D00E4C6EFF0E4D6E4AC0F6FF4BC0F7FFBE
:101AC8000800F5504E6E4F6A4C504E264D504F222E
:101AD8004E506D264F506E224A4A4B2A4AC0F6FF96
:101AE8004BC0F7FF0800F550CCEC47F0D8A002D067
:101AF800D1D700D04AC0F6FF4BC0F7FF0800F55019
:101B08002E0AD8A430D07A8C4A4A4B2A000E776E17
:101B1800000E766E1CD076C00FF077C010F0000E65
:101B2800126E0A0E116E95EC47F04AC0F6FF4BC0D4
:101B3800F7FF0800F5500F26000E1022D00E0F24D4
:101B4800766EFF0E1020776E4A4A4B2A00D04AC0A4
:101B5800F6FF4BC0F7FF0800F550CCEC47F0D8A0D3
:101B680017D0D9D715D0000E776E000E766E7A880A
:101B78000FD0B0EF17F07A8433D0798A7A8030D0DA
:101B8800798A7A822DD0798E2BD0A1EF17F028D0C0
:101B98004AC0F6FF4BC0F7FF4A4A4B2A0800F5CF68
:101BA80078F07850000AD8B4B0EF17F0450AD8B4E6
:101BB800E4D7020AD8B4E4D7230AD8B411D0010A6A
:101BC800D8B4DCD7030AD8B4D6D7010AD8B4D9D741
:101BD8000E0AD8B405D0110AD8B4D5D7A1EF17F09A
:101BE800070E7A14D8B46FEF15F07AA805D0000E56
:101BF800776E060E766E00D065C0D9FF66C0DAFF34
:101C0800DECF73F0DECF74F0DDCF75F0030E6526FE
:101C1800000E662275AE11D073C019F074C01AF0A8
:101C280075C01BF0A9EC47F019C073F01AC074F026
:101C38001BC075F0030E791200D0000E6C6E000EFA
:101C48006B6E735074107510D8B485D0820E4C6EBC
:101C5800FF0E4D6E73C04EF074C04FF075C050F05B
:101C680076C051F0100E05D0D890513250324F3214
:101C78004E32E82EF9D74E504C246B6E000E4D2094
:101C88006C6E6B06D8A06C066BC00FF06CC010F0C1
:101C9800000E126E030E116E95EC47F00FC06BF03C
:101CA80010C06CF06BC007F06CC008F0000E0A6E34
:101CB8000A0E096EC9EC3FF007C06BF008C06CF063
:101CC8006CAE04D06B06D8A06C0600D06B50000830
:101CD800CAEC1FF02BC067F02CC068F02DC069F06B
:101CE80067C01CF068C01DF069C01EF073C01FF00B
:101CF80074C020F075C021F054EC36F01CC067F0B9
:101D08001DC068F01EC069F067C041F068C042F0AD
:101D180069C043F0000E446E800E456E3F0E466E5D
:101D280014EC40F0D8B004D06B06D8A06C0613D0E1
:101D380067C041F068C042F069C043F0000E446ECD
:101D4800200E456E410E466E14EC40F0D8A003D02C
:101D58006B4A6C2A00D06CBE05D06C5006E16B044F
:101D6800D8B003D0010E786E02D06BC078F07AB08C
:101D780016D07AA226D36CAE06D0FC0E6B5CFF0E92
:101D88006C58D8A00CD076506B5C6C50800A4C6EA6
:101D98007750800A4C58D8B002D013D300D0765070
:101DA8007710D8A47AA204D07606D8A0770600D0F7
:101DB800775004E1090E765CD8A003D0080E786E3F
:101DC80003D076C078F000D0735074107510D8B472
:101DD800DED073C032F074C033F075C034F0785080
:101DE80000086B24CAEC1FF02BC035F02CC036F06D
:101DF8002DC037F025EC39F032C073F033C074F0E1
:101E080034C075F073C038F074C039F075C03AF05A
:101E180073C001F074C002F075C003F041EC38F0F3
:101E280001C010F002C011F003C012F004C013F09A
:101E380020EC44F010C019F011C01AF012C01BF0C9
:101E4800A9EC47F019C035F01AC036F01BC037F0BE
:101E5800C1EC2BF035C041F036C042F037C043F03A
:101E6800000E446E000E456E3F0E466E14EC40F0B8
:101E7800D8A015D073C035F074C036F075C037F0EF
:101E8800000E386E000E396E3F0E3A6EC1EC2BF024
:101E980035C073F036C074F037C075F000D078C024
:101EA8004CF04D6A4CBE4D06D8904C364D36D89005
:101EB8004C364D36040E4C26000E4D220E0E4C2488
:101EC800F66EFE0E4D20F76E73C001F074C002F07E
:101ED80075C003F041EC38F00900F550015C0900C9
:101EE800F55002580900F55003580900F5500458F8
:101EF800D8A017D073C01CF074C01DF075C01EF0B8
:101F0800CD0E1F6ECC0E206E3D0E216E54EC36F0B9
:101F18001CC073F01DC074F01EC075F06B4A6C2AAB
:101F280036D07850040D0E0EF324F66EFE0EF42013
:101F3800F76E73C001F074C002F075C003F041EC95
:101F480038F00900F550015C0900F5500258090005
:101F5800F55003580900F5500458D8B018D073C08C
:101F68001CF074C01DF075C01EF0000E1F6E200E10
:101F7800206E410E216E54EC36F01CC073F01DC06B
:101F880074F01EC075F06B06D8A06C0600D07AB24B
:101F98007AB683D077BE0BD0775004E10B0E765C0F
:101FA800D8A005D0000E776E0A0E766E00D073C0EA
:101FB80001F074C002F075C003F041EC38F001C0C4
:101FC8006FF002C070F003C071F004C072F01ED050
:101FD8007606D8A077066FC001F070C002F071C015
:101FE80003F072C004F00A0E056E000E066E000EB5
:101FF800076E000E086E5FEC40F001C06FF002C083
:1020080070F003C071F004C072F000D06F5070100F
:1020180071107210D8B41AD06FC00EF070C00FF0E3
:1020280071C010F072C011F00A0E126E000E136E1D
:10203800000E146E000E156E20EC42F00E500F10BC
:1020480010101110D8A402D0C3D700D07750800A3E
:102058004C6E7850765C800E78BE7F0E4C58D8B0A7
:102068001CD073C032F074C033F075C034F07650B1
:1020780000087824CAEC1FF02BC035F02CC036F0CD
:102088002DC037F025EC39F032C073F033C074F04E
:1020980034C075F076C078F000D0050E76244C6E0A
:1020A800000E77204D6E4C506D5E4D506E5A765036
:1020B8007710D8A402D07AA604D06D06D8A06E06F0
:1020C80000D0030E79144C6E000E7A144D6E4C50ED
:1020D8004D10D8B404D06D06D8A06E0600D079A4EF
:1020E80027D079A20FD079B004D0000E576E2B0EEE
:1020F80003D0000E576E2D0E566E00D0565049EC88
:1021080049F00DD079A00BD0200E49EC49F007D04A
:10211800300E49EC49F06D06D8A06E0600D06EBEB0
:1021280030D06E50F5E16D04D8A02BD0F1D729D06E
:1021380079A609D00FD007D0200E49EC49F06D06DA
:10214800D8A06E0600D06EBE05D06E50F5E16D04C5
:10215800D8B0F2D779A20FD079B004D0000E596E5A
:102168002B0E03D0000E596E2D0E586E00D058500D
:1021780049EC49F006D079A004D0200E49EC49F08A
:1021880000D073C001F074C002F075C003F041ECD8
:1021980038F001C06FF002C070F003C071F004C0E5
:1021A80072F06FC001F070C002F071C003F072C02D
:1021B80004F07850040D0E0EF324F66EFE0EF42093
:1021C800F76E0900F5CF05F00900F5CF06F0090014
:1021D800F5CF07F00A00F5CF08F05FEC40F00150AA
:1021E800300F49EC49F06FC00EF070C00FF071C0AD
:1021F80010F072C011F07850040D0E0EF324F66E34
:10220800FE0EF420F76E0900F5CF12F00900F5CFA5
:1022180013F00900F5CF14F00A00F5CF15F020EC03
:1022280042F00EC06FF00FC070F010C071F011C016
:1022380072F076507710D8A402D07AA674D02E0EF9
:1022480049EC49F07850765E000E78BEFF0E775A5A
:1022580059D07AA20ED06F50701071107210D8A495
:1022680008D0000E786E7850766E776A76BE77065C
:1022780056D06FC001F070C002F071C003F072C098
:1022880004F07850040D0E0EF324F66EFE0EF420C2
:10229800F76E0900F5CF05F00900F5CF06F0090043
:1022A800F5CF07F00A00F5CF08F05FEC40F00150D9
:1022B800300F49EC49F06FC00EF070C00FF071C0DC
:1022C80010F072C011F07850040D0E0EF324F66E63
:1022D800FE0EF420F76E0900F5CF12F00900F5CFD5
:1022E80013F00900F5CF14F00A00F5CF15F020EC33
:1022F80042F00EC06FF00FC070F010C071F011C046
:1023080072F000D078067828D8B409D0A2D707D0C0
:10231800300E49EC49F07606D8A0770600D0765002
:102328007710D8A4F5D779AA04D0450E49EC49F01E
:1023380004D0650E49EC49F000D06CAE08D06B6C47
:102348006C1ED8B06C2A2D0E49EC49F004D02B0E27
:1023580049EC49F000D06BC007F06CC008F0000EE3
:102368000A6E0A0E096EC9EC3FF00750300F49ECAF
:1023780049F06BC001F06CC002F0000E046E0A0E4A
:10238800036E2AEC41F00150300F49EC49F079B660
:102398006EBEA1EF17F06E5006E16D04D8B003D001
:1023A800A1EF17F000D0200E49EC49F06D06D8A037
:1023B8006E066D506E10D8B4A1EF17F0F4D7A1EFE8
:1023C80017F07AA2EED06CAE0BD0010E6B244C6ED7
:1023D800000E6C204D6E4C50765E4D50775A00D0F2
:1023E80073C001F074C002F075C003F041EC38F01E
:1023F80001C06FF002C070F003C071F004C072F049
:10240800000E786E0A0E7818D8B41CD001D01AD0F5
:102418007850040D0E0EF324F66EFE0EF420F76EBF
:102428000900F5506F5C0900F55070580900F55027
:1024380071580900F5507258D8A004D001D002D0C4
:10244800782AE0D77850765E000E78BEFF0E775A6D
:1024580077BE06D077501BE10D0E765CD8B017D04A
:1024680073C035F074C036F075C037F0765099EC0B
:1024780026F02BC038F02CC039F02DC03AF0C1EC52
:102488002BF035C073F036C074F037C075F0765055
:10249800CAEC1FF02BC062F02CC063F02DC064F0B2
:1024A80062C01CF063C01DF064C01EF073C038F039
:1024B80074C039F075C03AF06FC010F070C011F0F8
:1024C80071C012F072C013F020EC44F010C019F083
:1024D80011C01AF012C01BF0A9EC47F019C035F072
:1024E8001AC036F01BC037F0C1EC2BF035C01FF016
:1024F80036C020F037C021F054EC36F01CC062F032
:102508001DC063F01EC064F062C001F063C002F039
:1025180064C003F041EC38F001C06FF002C070F005
:1025280003C071F004C072F01ED06FC001F070C01B
:1025380002F071C003F072C004F00A0E056E000EBE
:10254800066E000E076E000E086E5FEC40F001C0CC
:102558006FF002C070F003C071F004C072F076062C
:10256800D8A0770600D076507710D8B43AD06FC08C
:102578000EF070C00FF071C010F072C011F00A0EAA
:10258800126E000E136E000E146E000E156E20EC07
:1025980042F00E500F1010101110D8A422D0C5D739
:1025A80020D077BE06D077501CE10D0E765CD8B0EF
:1025B80018D073C035F074C036F075C037F0765057
:1025C80099EC26F02BC038F02CC039F02DC03AF029
:1025D800C1EC2BF035C073F036C074F037C075F01D
:1025E80000D06CBE06D06C5020E10A0E6B5CD8B0EF
:1025F8001CD0735074107510D8B46DD073C001F02E
:1026080074C002F075C003F041EC38F001500210BC
:1026180003100410D8B46CBE5ED06C5006E1020EF4
:102628006B5CD8B002D057D000D067C041F068C00A
:1026380042F069C043F0700E446E890E456E400E3C
:10264800466E14EC40F0D8B002D0F70E01D0F80E68
:102658006B26FF0E6C2200D06B50CAEC1FF02BC00B
:1026680067F02CC068F02DC069F017D073C001F076
:1026780074C002F075C003F067C004F068C005F0CC
:1026880069C006F0CFEC34F001C06FF002C070F002
:1026980003C071F004C072F017D073C001F074C0A9
:1026A80002F075C003F067C004F068C005F069C0A7
:1026B80006F047EC34F001C06FF002C070F003C0C0
:1026C80071F004C072F000D0000E736E000E746ECC
:1026D800000E756E33D073C001F074C002F075C07F
:1026E80003F041EC38F001C06FF002C070F003C095
:1026F80071F004C072F073C041F074C042F075C04C
:1027080043F06FC010F070C011F071C012F072C0C9
:1027180013F020EC44F010C044F011C045F012C092
:1027280046F001EC46F041C073F042C074F043C07B
:1027380075F0000E6C6E000E6B6E00D0010E786E98
:102748000A0E7818D8B41CD001D01AD07850040DCD
:102758000E0EF324F66EFE0EF420F76E0900F55007
:102768006F5C0900F55070580900F5507158090060
:10277800F5507258D8A004D001D002D0782AE0D7FA
:1027880078C04CF04D6A4CBE4D0676504C267750BA
:102798004D226B504C266C504D224C506D5E4D5066
:1027A8006E5A7AB604D076507710D8B404D06D0635
:1027B800D8A06E0600D0030E79144C6E000E7A1461
:1027C8004D6E4C504D10D8B404D06D06D8A06E068E
:1027D80000D079A427D079A20FD079B004D0000E08
:1027E8005B6E2B0E03D0000E5B6E2D0E5A6E00D062
:1027F8005A5049EC49F00DD079A00BD0200E49EC85
:1028080049F007D0300E49EC49F06D06D8A06E06A5
:1028180000D06EBE75D06E50F5E16D04D8A070D0B2
:10282800F1D76ED079A609D00FD007D0200E49EC89
:1028380049F06D06D8A06E0600D06EBE05D06E5069
:10284800F5E16D04D8B0F2D779A20FD079B004D0F1
:10285800000E5D6E2B0E03D0000E5D6E2D0E5C6EAD
:1028680000D05C5049EC49F04BD079A049D0200EFB
:1028780049EC49F045D06FC001F070C002F071C05A
:1028880003F072C004F07850040D0E0EF324F66EB7
:10289800FE0EF420F76E0900F5CF05F00900F5CF1C
:1028A80006F00900F5CF07F00A00F5CF08F05FEC55
:1028B80040F001C067F002C068F003C069F004C0CE
:1028C8006AF067C00EF068C00FF069C010F06AC007
:1028D80011F00A0E126E000E136E000E146E000E2A
:1028E800156E20EC42F00EC067F00FC068F010C003
:1028F80069F011C06AF06750300F49EC49F000D018
:1029080078067828D8B409D0B6D707D0300E49EC65
:1029180049F06B06D8A06C0600D06CBE05D06C5090
:10292800F5E16B04D8B0F2D777BE09D0775004E14F
:10293800090E765CD8A003D0080E786E03D076C056
:1029480078F000D07850765E000E78BEFF0E775A89
:102958007850D8A402D07AA604D02E0E49EC49F0BB
:1029680000D07850CAEC1FF02BC052F02CC053F0A6
:102978002DC054F073C01FF074C020F075C021F052
:1029880052C01CF053C01DF054C01EF054EC36F079
:102998001CC001F01DC002F01EC003F041EC38F06D
:1029A80001C06FF002C070F003C071F004C072F093
:1029B8006BD06FC001F070C002F071C003F072C03C
:1029C80004F07850040D0E0EF324F66EFE0EF4207B
:1029D800F76E0900F5CF05F00900F5CF06F00900FC
:1029E800F5CF07F00A00F5CF08F05FEC40F001C022
:1029F80067F002C068F003C069F004C06AF067C0FD
:102A08000EF068C00FF069C010F06AC011F00A0E2D
:102A1800126E000E136E000E146E000E156E20EC72
:102A280042F00EC067F00FC068F010C069F011C026
:102A38006AF06750300F49EC49F06FC00EF070C073
:102A48000FF071C010F072C011F07850040D0E0E26
:102A5800F324F66EFE0EF420F76E0900F5CF12F09F
:102A68000900F5CF13F00900F5CF14F00A00F5CFEF
:102A780015F020EC42F00EC06FF00FC070F010C0DF
:102A880071F011C072F000D078067828D8B409D057
:102A980090D707D0300E49EC49F07606D8A07706D3
:102AA80000D076507710D8A4F5D779B66EBE45D247
:102AB8006E5005E16D04D8B002D03FD200D0200E90
:102AC80049EC49F06D06D8A06E066D506E10D8B46A
:102AD80034D2F5D732D279BE1ED065C0D9FF66C0D0
:102AE800DAFFDECF6FF0DDCF70F0000E70BEFF0EA4
:102AF800716E726E020E6526000E662272AE1ED0D0
:102B0800030E7912721E711E701E6F6C000E7022F9
:102B18007122722213D065C0D9FF66C0DAFFDECFFA
:102B28004CF0DDCF4DF04CC06FF04DC070F0716AC5
:102B3800726A020E6526000E662200D07650771063
:102B4800D8A44FD06F50701071107210D8A449D00B
:102B5800764A772A46D0010E786E0A0E7818D8B4CD
:102B680049D001D047D07850040D0E0EF324F66EEC
:102B7800FE0EF420F76E0900F5506F5C0900F55061
:102B880070580900F55071580900F5507258D8A0CE
:102B980031D001D02FD0782AE0D72CD0010E786E12
:102BA800080E7818D8B426D001D024D07850040D57
:102BB800840EF324F66EFE0EF420F76E0900F5502D
:102BC8006F5C0900F55070580900F55071580900FC
:102BD800F5507258D8A00ED001D00CD0782AE0D782
:102BE80009D07950800B000AD8B4B5D7800AD8B478
:102BF800D5D700D0800E78BE7F0E4C6E7650785CAC
:102C08007750800A4C58D8B003D076C078F011D0ED
:102C18007750800A4C6E7850765C800E78BE7F0EB6
:102C28004C58D8B006D07850766E776A76BE77065C
:102C380000D06D506E10D8B40ED0030E79144C6EBF
:102C4800000E7A144D6E4C504D10D8B404D06D0659
:102C5800D8A06E0600D07AAC14D06D50765C775050
:102C6800800A4C6E6E50800A4C58D8B005D0765009
:102C78006D5E77506E5A05D0000E6E6E000E6D6E4A
:102C880000D0800E4C6E080E4D6E79C04EF07AC0A2
:102C98004FF04C504E164D504F16800E4E1816E100
:102CA800080E4F18D8A412D06EBE0BD06E5004E197
:102CB800030E6D5CD8A005D0FE0E6D26FF0E6E22A9
:102CC80005D0000E6E6E000E6D6E00D0800E78BEC0
:102CD8007F0E4C6E6D50785C6E50800A4C58D8B0A0
:102CE80007D078506D5E000E78BEFF0E6E5A05D084
:102CF800000E6E6E000E6D6E00D079A441D079A2E0
:102D08000FD079B004D0000E5F6E2B0E03D0000EEA
:102D18005F6E2D0E5E6E00D05E5049EC49F020D0FB
:102D280079A004D0200E49EC49F01AD0800E4C6EE0
:102D3800080E4D6E79C04EF07AC04FF04C504E16CA
:102D48004D504F16800E4E180BE1080E4F18D8A4A0
:102D580007D0300E49EC49F0780E49EC49F000D024
:102D68006D506E10D8B4CBD0300E49EC49F06D06DA
:102D7800D8A06E066D506E10D8B4C1D0F5D7BFD0AC
:102D88006D506E10D8A479B60AD0200E49EC49F0DF
:102D98006D06D8A06E066D506E10D8A4F6D779A22D
:102DA8000FD079B004D0000E616E2B0E03D0000E48
:102DB800616E2D0E606E00D0605049EC49F006D06F
:102DC80079A004D0200E49EC49F000D0800E4C6E5A
:102DD800080E4D6E79C04EF07AC04FF04C504E162A
:102DE8004D504F16800E4E1803E1080E4F18D8A408
:102DF80086D0300E49EC49F0780E49EC49F07FD086
:102E080071D076C04CF077C04DF0D8904C364D3626
:102E1800D8904C364D360E0E4C24F66EFE0E4D20D4
:102E2800F76E0900F5CF05F00900F5CF06F00900A7
:102E3800F5CF07F00A00F5CF08F06FC001F070C0B9
:102E480002F071C003F072C004F05FEC40F001C002
:102E58000EF002C00FF003C010F004C011F00A0E0B
:102E6800126E000E136E000E146E000E156E20EC1E
:102E780042F00E50300F786E3ED06FC001F070C037
:102E880002F071C003F072C004F076C04CF077C055
:102E98004DF0D8904C364D36D8904C364D36840E81
:102EA8004C24F66EFE0E4D20F76E0900F5CF05F0A6
:102EB8000900F5CF06F00900F5CF07F00A00F5CFB5
:102EC80008F05FEC40F001500F0B556E5550010DA6
:102ED800560EF324F66EFF0EF420F76E0800F5CFB9
:102EE80078F009D07950800B000AD8B48AD7800AC4
:102EF800D8B4C3D700D0785049EC49F000D0760652
:102F0800D8A077067628EEE17728D8A4EBD779B64B
:102F18006EBE13D06E5005E16D04D8B002D00DD04E
:102F280000D0200E49EC49F06D06D8A06E066D5011
:102F38006E10D8B402D0F5D700D04AC0F6FF4BC007
:102F4800F7FF4A4A4B2A0800F5CF78F07850D8B4F2
:102F580003D001EF0DF000D012000101A1AF25D080
:102F68002D0E01018E6F7F0E0101A1150001946FD6
:102F78000001956B000E0001976F0A0E966F74ECB6
:102F88003AF000019451300F01018F6F7F0E01015B
:102F9800A1150001BA6F0001BB6B000E0001BD6FE7
:102FA8000A0EBC6F87EC3DF01ED02B0E01018E6F10
:102FB800A1C194F0A2C195F0000E0001976F0A0E0E
:102FC800966F74EC3AF000019451300F01018F6F45
:102FD800A1C1BAF0A2C1BBF0000E0001BD6F0A0E7C
:102FE800BC6F87EC3DF00001BA51300F0101906FC2
:102FF80000D00101A4AF2CD02D0E0101926FA3C106
:10300800C7F0A4C1C8F00001C71FC81FC74BC82B11
:10301800C7C0C9F0C8C0CAF0C9C094F0CAC095F00A
:10302800000E0001976F0A0E966F74EC3AF00001DB
:103038009451300F0101936FC9C0BAF0CAC0BBF0F8
:10304800000E0001BD6F0A0EBC6F87EC3DF01ED06C
:103058002B0E0101926FA3C194F0A4C195F0000E4C
:103068000001976F0A0E966F74EC3AF000019451C4
:10307800300F0101936FA3C1BAF0A4C1BBF0000ED9
:103088000001BD6F0A0EBC6F87EC3DF00001BA511C
:10309800300F0101946F00D00001ED390F0B300F94
:1030A8000101646F0001ED510F0B300F0101656FD5
:1030B8000001EE390F0B300F0101676F0001EE516F
:1030C8000F0B300F0101686F0001F0390F0B300F43
:1030D80001016A6F0001F0510F0B300F01016B6F96
:1030E8000001EF390F0B300F0101406F0001EF5164
:1030F8000F0B300F0101416F0001EA390F0B300F40
:103108000101436F0001EA510F0B300F0101446FB9
:103118000001F1390F0B300F0101466F0001F15129
:103128000F0B300F0101476F0001E7390F0B300F0C
:103138000101376F0001E7510F0B300F0101386FA4
:103148000001E8390F0B300F01013A6F0001E85117
:103158000F0B300F01013B6F0001E9390F0B300FE6
:1031680001013D6F0001E9510F0B300F01013E6F66
:1031780001019F050101A011D8A40FD0820E000102
:103188008E6F010E00018F6FEA0E0001906FFF0E27
:103198000001916F9BEC46F00FD0820E00018E6FFC
:1031A800010E00018F6FEE0E0001906FFF0E0001FF
:1031B800916F9BEC46F000D034C194F00001956B00
:1031C800000E0001976F640E966F74EC3AF00001E0
:1031D8009451300F0101736F000E0001976F0A0EB2
:1031E800966F34C194F00001956B74EC3AF094C07A
:1031F800BAF095C0BBF0000E0001BD6F0A0EBC6F9F
:1032080087EC3DF00001BA51300F0101746F34C1F1
:10321800BAF00001BB6B000E0001BD6F0A0EBC6F57
:1032280087EC3DF00001BA51300F0101756F7D0444
:10323800D8A40FD08A0E00018E6F010E00018F6F87
:10324800EA0E0001906FFF0E0001916F9BEC46F0B3
:103258000FD08A0E00018E6F010E00018F6FEE0EE7
:103268000001906FFF0E0001916F9BEC46F000D0BB
:1032780080B402D0310E01D0300E0101966F00D01B
:10328800EBC094F00001956B000E0001976F640E7F
:10329800966F74EC3AF000019451300F0101866F7B
:1032A800000E0001976F0A0E966FEBC094F00001B4
:1032B800956B74EC3AF094C0BAF095C0BBF0000E70
:1032C8000001BD6F0A0EBC6F87EC3DF00001BA51DA
:1032D800300F0101876FEBC0BAF00001BB6B000E25
:1032E8000001BD6F0A0EBC6F87EC3DF00001BA51BA
:1032F800300F0101886F9CC1ABF09DC1ACF09EC13D
:10330800ADF072EC31F00001AB51300F01016D6F7F
:10331800000E00019F6F200E0001A06F410E0001FA
:10332800A16F9CC19CF09DC19DF09EC19EF0DEECFA
:103338002EF09CC0ABF09DC0ACF09EC0ADF072EC1E
:1033480031F0ABC0BAF0ACC0BBF0000E0001BD6FED
:103358000A0EBC6F87EC3DF00001BA51300F010135
:103368006F6F000E00019F6FC80E0001A06F420E24
:103378000001A16F9CC19CF09DC19DF09EC19EF073
:10338800DEEC2EF09CC0ABF09DC0ACF09EC0ADF062
:1033980072EC31F0ABC0BAF0ACC0BBF0000E00016B
:1033A800BD6F0A0EBC6F87EC3DF00001BA51300FBB
:1033B8000101706FAFC194F0B0C195F0030E000128
:1033C800976FE80E966F74EC3AF000019451300F45
:1033D8000101786F000E0001976F640E966FAFC100
:1033E80094F0B0C195F074EC3AF094C0BAF095C07E
:1033F800BBF0000E0001BD6F0A0EBC6F87EC3DF0FC
:103408000001BA51300F0101796F000E0001976F6A
:103418000A0E966FAFC194F0B0C195F074EC3AF013
:1034280094C0BAF095C0BBF0000E0001BD6F0A0E43
:10343800BC6F87EC3DF00001BA51300F01017A6F83
:10344800AFC1BAF0B0C1BBF0000E0001BD6F0A0EEB
:10345800BC6F87EC3DF00001BA51300F01017B6F62
:10346800170E0001B66F8E0E0001B76F010E000136
:10347800B86FFF0E0001BA6FE00EB96F000E0001C1
:10348800BC6F000EBB6F020E0001BD6F010E0BEC8E
:1034980032F0170E0001B66F920E0001B76F010EE1
:1034A8000001B86FFF0E0001BA6FE00EB96F000E91
:1034B8000001BC6F000EBB6F020E0001BD6F460E0F
:1034C8000BEC32F0340E0001B66F640E0001B76FDA
:1034D800010E0001B86F070E0001BA6FB969000E3E
:1034E8000001BC6F000EBB6F020E0001BD6F0F0E16
:1034F8000BEC32F0520E0001B66F400E0001B76FB0
:10350800010E0001B86F070E0001BA6FE00EB96F27
:10351800000E0001BC6F000EBB6F020E0001BD6FF4
:103528000F0E0BEC32F06E0E0001B66F370E000175
:10353800B76F010E0001B86F070E0001BA6FB969C5
:10354800000E0001BC6F000EBB6F010E0001BD6FC5
:103558000A0E0BEC32F06E0E0001B66F820E0001FF
:10356800B76F010E0001B86F070E0001BA6FB96995
:10357800000E0001BC6F000EBB6F010E0001BD6F95
:103588005F0E0BEC32F0820E0001B66F730E000175
:10359800B76F010E0001B86FF80E0001BA6F000E88
:1035A800B96F000E0001BC6F000EBB6F010E000169
:1035B800BD6F230E0BEC32F0820E0001B66F8A0E3F
:1035C8000001B76F010E0001B86FF80E0001BA6F65
:1035D800000EB96F000E0001BC6F000EBB6F010E2C
:1035E8000001BD6F5F0E0BEC32F0960E0001B66F56
:1035F800860E0001B76F010E0001B86F070E0001BB
:10360800BA6FE00EB96F000E0001BC6F000EBB6F01
:10361800010E0001BD6F0A0E0BEC32F0960E000190
:10362800B66F960E0001B76F010E0001B86F070E56
:103638000001BA6FE00EB96F000E0001BC6F000EFA
:10364800BB6F010E0001BD6F230E0BEC32F0960E1E
:103658000001B66F6D0E0001B76F010E0001B86F63
:10366800070E0001BA6FE00EB96F000E0001BC6FC3
:10367800000EBB6F010E0001BD6F320E0BEC32F075
:10368800960E0001B66F780E0001B76F010E0001AB
:10369800B86F070E0001BA6FE00EB96F000E000197
:1036A800BC6F000EBB6F010E0001BD6F5D0E0BEC11
:1036B80032F012000001C66F0001C6AF1ED1000132
:1036C800C66D0001C651800A120FD8A0A8D0000EFE
:1036D8000001916F030E906F000E0001976F0A0EA4
:1036E800966F000E0001BD6F640EBC6F0001C651DD
:1036F8000001BA6FBB6BBABFBB0787EC3DF0BAC01D
:1037080094F0BBC095F074EC3AF0090E00019425D2
:1037180000018E6F000E0001952100018F6F7FEC74
:1037280046F0360E00018E25F66EFE0E00018F2142
:10373800F76E0900F5CF9FF00900F5CFA0F00A0059
:10374800F5CFA1F0000E0001976F640E966F00018F
:10375800C6510001946F956B94BF950774EC3AF0CD
:10376800120E0001942500018E6F000E00019521B4
:1037780000018F6F000E0001916F030E906F7FECB8
:1037880046F0360E00018E25F66EFE0E00018F21E2
:10379800F76E0900F5CF9CF00900F5CF9DF00A00FF
:1037A800F5CF9EF0DEEC2EF09CC0C3F09DC0C4F0B7
:1037B8009EC0C5F0C3C09CF0C4C09DF0C5C09EF0BB
:1037C800000E0001916F030E906F000E0001BD6F97
:1037D8000A0EBC6F0001C6510001BA6FBB6BBABFBD
:1037E800BB0787EC3DF0BAC08EF0BBC08FF07FEC12
:1037F80046F0360E00018E25F66EFE0E00018F2172
:10380800F76E0900F5CF9FF00900F5CFA0F00A0088
:10381800F5CFA1F0DEEC2EF080D19AD165D0000171
:10382800C651800A750FD8A05FD0000E0001976FAF
:103838000A0E966F0001C6510001946F956B94BFF4
:10384800950774EC3AF0090E0001942500018E6F7B
:10385800000E0001952100018F6F000E0001916F8D
:10386800030E906F7FEC46F0360E00018E25F66E43
:10387800FE0E00018F21F76E0900F5CF9CF00900BC
:10388800F5CF9DF00A00F5CF9EF0000E0001916F74
:10389800030E906F000E0001BD6F0A0EBC6F000191
:1038A800C6510001BA6FBB6BBABFBB0787EC3DF0CE
:1038B800BAC08EF0BBC08FF07FEC46F0360E000128
:1038C8008E25F66EFE0E00018F21F76E0900F5CFEA
:1038D8009FF00900F5CFA0F00A00F5CFA1F0DEECCB
:1038E8002EF01BD135D100D00001C651030D360E84
:1038F800F324F66EFE0E20D12BD10001C651800AAA
:10390800120FD8A0A8D0000E0001916F030E906F7F
:10391800000E0001976F0A0E966F000E0001BD6F32
:10392800640EBC6F0001C6510001BA6FBB6BBABF11
:10393800BB0787EC3DF0BAC094F0BBC095F074ECBF
:103948003AF0090E0001942500018E6F000E000167
:10395800952100018F6F7FEC46F05D0E00018E25EA
:10396800F66EFE0E00018F21F76E0900F5CF9FF06D
:103978000900F5CFA0F00A00F5CFA1F0000E000174
:10398800976F640E966F0001C6510001946F956B96
:1039980094BF950774EC3AF0120E000194250001CB
:1039A8008E6F000E0001952100018F6F000E00013F
:1039B800916F030E906F7FEC46F05D0E00018E252F
:1039C800F66EFE0E00018F21F76E0900F5CF9CF010
:1039D8000900F5CF9DF00A00F5CF9EF0DEEC2EF041
:1039E8009CC0C3F09DC0C4F09EC0C5F0C3C09CF08D
:1039F800C4C09DF0C5C09EF0000E0001916F030E7B
:103A0800906F000E0001BD6F0A0EBC6F0001C65119
:103A18000001BA6FBB6BBABFBB0787EC3DF0BAC0F9
:103A28008EF0BBC08FF07FEC46F05D0E00018E2556
:103A3800F66EFE0E00018F21F76E0900F5CF9FF09C
:103A48000900F5CFA0F00A00F5CFA1F0DEEC2EF0CA
:103A580064D07ED06AD00001C651800A750FD8A004
:103A680064D0000E0001976F0A0E966F0001C651D0
:103A78000001946F956B94BF950774EC3AF0090EAA
:103A88000001942500018E6F000E000195210001B0
:103A98008F6F000E0001916F030E906F7FEC46F060
:103AA8005D0E00018E25F66EFE0E00018F21F76E69
:103AB8000900F5CF9CF00900F5CF9DF00A00F5CF7D
:103AC8009EF0000E0001916F030E906F000E000132
:103AD800BD6F0A0EBC6F0001C6510001BA6FBB6B07
:103AE800BABFBB0787EC3DF0BAC08EF0BBC08FF001
:103AF8007FEC46F05D0E00018E25F66EFE0E00018D
:103B08008F21F76E0900F5CF9FF00900F5CFA0F0DF
:103B18000A00F5CFA1F0DEEC2EF09CC0C0F09DC0ED
:103B2800C1F09EC0C2F014D000D00001C651030DF0
:103B38005D0EF324F66EFE0EF420F76E0900F5CF45
:103B4800C0F00900F5CFC1F00A00F5CFC2F000D0EF
:103B58001200BDEC48F02FEC47F0000E0001A26FF8
:103B6800000EA16FBBEC47F0E4C08EF0E5C08FF00B
:103B7800040E0001906FFF0E0001916F9BEC46F060
:103B8800010E0001B66FE4C0B7F0E5C0B8F0FF0E53
:103B98000001BA6FB969000E0001BC6F000EBB6F5F
:103BA800010E0001BD6F010E0BEC32F0E4C08EF087
:103BB800E5C08FF0760E0001906FFF0E0001916F47
:103BC8009BEC46F00B0E0001B66FE4C0B7F0E5C001
:103BD800B8F0F80E0001BA6F1F0EB96F000E0001A1
:103BE800BC6F000EBB6F010E0001BD6F180E0BEC11
:103BF80032F0000E00019A6F280E996F000E000136
:103C08009C6F170E9B6F000E00019E6F020E9D6F3A
:103C1800FF0E0001A06FE00E9F6F4EEC24F0E4C091
:103C28008EF0E5C08FF0F60E0001906FFF0E0001D8
:103C3800916F9BEC46F0170E0001B66FE4C0B7F029
:103C4800E5C0B8F0FF0E0001BA6FE00EB96F000EC4
:103C58000001BC6F000EBB6F020E0001BD6F2D0E80
:103C68000BEC32F0E4C08EF0E5C08FF0F00E0001EE
:103C7800906FFF0E0001916F9BEC46F0000E000163
:103C88009A6F6E0E996F000E00019C6F170E9B6F56
:103C9800000E00019E6F020E9D6FFF0E0001A06FC7
:103CA800E00E9F6F4EEC24F0170E0001B66FE4C0D3
:103CB800B7F0E5C0B8F0FF0E0001BA6FE00EB96FBB
:103CC800000E0001BC6F000EBB6F020E0001BD6F3D
:103CD800730E0BEC32F0E4C08EF0E5C08FF0C40E2A
:103CE8000001906FFF0E0001916F9BEC46F0280ECB
:103CF8000001B66FE4C0B7F0E5C0B8F0000E0001EF
:103D0800BA6F1F0EB96F000E0001BC6F000EBB6FBB
:103D1800010E0001BD6F320E0BEC32F0E4C08EF0E4
:103D2800E5C08FF0E00E0001906FFF0E0001916F6B
:103D38009BEC46F0470E0001B66FE4C0B7F0E5C053
:103D4800B8F0F80E0001BA6F000EB96F000E00014E
:103D5800BC6F000EBB6F010E0001BD6F320E0BEC85
:103D680032F0E4C08EF0E5C08FF0BE0E0001906F17
:103D7800FF0E0001916F9BEC46F0640E0001B66FD8
:103D8800E4C0B7F0E5C0B8F0FF0E0001BA6FE00E6E
:103D9800B96F000E0001BC6F000EBB6F010E000171
:103DA800BD6F040E0BEC32F0E4C08EF0E5C08FF06E
:103DB800C90E0001906FFF0E0001916F9BEC46F059
:103DC800640E0001B66FE4C0B7F0E5C0B8F0FF0EAE
:103DD8000001BA6FE00EB96F000E0001BC6F000E53
:103DE800BB6F010E0001BD6F4D0E0BEC32F0E4C04D
:103DF8008EF0E5C08FF0830E0001906FFF0E00017A
:103E0800916F9BEC46F0780E0001B66FE4C0B7F0F6
:103E1800E5C0B8F0000E0001BA6F1F0EB96F000EB2
:103E28000001BC6F000EBB6F010E0001BD6F060ED6
:103E38000BEC32F0E4C08EF0E5C08FF0D20E00013A
:103E4800906FFF0E0001916F9BEC46F0780E000119
:103E5800B66FE4C0B7F0E5C0B8F0000E0001BA6F65
:103E68001F0EB96F000E0001BC6F000EBB6F010E74
:103E78000001BD6F550E0BEC32F0E4C08EF0E5C0CA
:103E88008FF0F90E0001906FFF0E0001916F9BEC0F
:103E980046F08C0E0001B66FE4C0B7F0E5C0B8F08C
:103EA800FF0E0001BA6FB969000E0001BC6F000E69
:103EB800BB6F010E0001BD6F0C0E0BEC32F0E4C0BD
:103EC8008EF0E5C08FF0FC0E0001906FFF0E000130
:103ED800916F9BEC46F08C0E0001B66FE4C0B7F012
:103EE800E5C0B8F0FF0E0001BA6FB969000E000115
:103EF800BC6F000EBB6F010E0001BD6F210E0BECF5
:103F080032F0E4C08EF0E5C08FF0E50E0001906F4E
:103F1800FF0E0001916F9BEC46F08C0E0001B66F0E
:103F2800E4C0B7F0E5C0B8F0FF0E0001BA6FB96998
:103F3800000E0001BC6F000EBB6F010E0001BD6FCB
:103F4800320E0BEC32F0E4C08EF0E5C08FF0F20ECA
:103F58000001906FFF0E0001916F9BEC46F08C0EF4
:103F68000001B66FE4C0B7F0E5C0B8F0FF0E00017D
:103F7800BA6FB969000E0001BC6F000EBB6F010E6D
:103F88000001BD6F5F0E0BEC32F01200316E31AEE6
:103F9800EFD0316C3150800A120FD8A08DD0000EAE
:103FA800126E030E116E000E0A6E0A0E096E000ED6
:103FB800046E640E036E3150016E026A01BE020681
:103FC8002AEC41F001C007F002C008F0C9EC3FF04C
:103FD800090E07240F6E000E0820106E95EC47F0AE
:103FE800360E0F24F66EFE0E1020F76E0900F5CF80
:103FF8001FF00900F5CF20F00A00F5CF21F0000EE0
:104008000A6E640E096E3150076E086A07BE08060C
:10401800C9EC3FF0120E07240F6E000E0820106E38
:10402800000E126E030E116E95EC47F0360E0F243B
:10403800F66EFE0E1020F76E0900F5CF1CF0090091
:10404800F5CF1DF00A00F5CF1EF054EC36F01CC079
:104058002EF01DC02FF01EC030F02EC01CF02FC057
:104068001DF030C01EF0000E126E030E116E000E11
:10407800046E0A0E036E3150016E026A01BE02061A
:104088002AEC41F001C00FF002C010F095EC47F0A7
:10409800360E0F24F66EFE0E1020F76E0900F5CFCF
:1040A8001FF00900F5CF20F00A00F5CF21F054ECFD
:1040B80036F041D15AD154D03150800A750FD8A06A
:1040C8004FD0000E0A6E0A0E096E3150076E086A4C
:1040D80007BE0806C9EC3FF0090E07240F6E000E54
:1040E8000820106E000E126E030E116E95EC47F04C
:1040F800360E0F24F66EFE0E1020F76E0900F5CF6F
:104108001CF00900F5CF1DF00A00F5CF1EF0000ED7
:10411800126E030E116E000E046E0A0E036E3150FD
:10412800016E026A01BE02062AEC41F001C00FF0DE
:1041380002C010F095EC47F0360E0F24F66EFE0E16
:104148001020F76E0900F5CF1FF00900F5CF20F019
:104158000A00F5CF21F054EC36F0EDD006D100D0AE
:104168003150030D360EF324F66EFE0EF2D0FDD05C
:104178003150800A120FD8A08DD0000E126E030E97
:10418800116E000E0A6E0A0E096E000E046E640EA1
:10419800036E3150016E026A01BE02062AEC41F03C
:1041A80001C007F002C008F0C9EC3FF0090E07246F
:1041B8000F6E000E0820106E95EC47F05D0E0F2470
:1041C800F66EFE0E1020F76E0900F5CF1FF00900FD
:1041D800F5CF20F00A00F5CF21F0000E0A6E640E2C
:1041E800096E3150076E086A07BE0806C9EC3FF031
:1041F800120E07240F6E000E0820106E000E126EAD
:10420800030E116E95EC47F05D0E0F24F66EFE0E50
:104218001020F76E0900F5CF1CF00900F5CF1DF04E
:104228000A00F5CF1EF054EC36F01CC02EF01DC06D
:104238002FF01EC030F02EC01CF02FC01DF030C073
:104248001EF0000E126E030E116E000E046E0A0EA2
:10425800036E3150016E026A01BE02062AEC41F07B
:1042680001C00FF002C010F095EC47F05D0E0F246E
:10427800F66EFE0E1020F76E0900F5CF1FF009004C
:10428800F5CF20F00A00F5CF21F054EC36F053D0EA
:104298006CD059D03150800A750FD8A054D0000E78
:1042A8000A6E0A0E096E3150076E086A07BE0806C4
:1042B800C9EC3FF0090E07240F6E000E0820106E9F
:1042C800000E126E030E116E95EC47F05D0E0F2472
:1042D800F66EFE0E1020F76E0900F5CF1CF00900EF
:1042E800F5CF1DF00A00F5CF1EF0000E126E030E7A
:1042F800116E000E046E0A0E036E3150016E026AD2
:1043080001BE02062AEC41F001C00FF002C010F015
:1043180095EC47F05D0E0F24F66EFE0E1020F76E3A
:104328000900F5CF1FF00900F5CF20F00A00F5CFFE
:1043380021F054EC36F01CC02BF01DC02CF01EC030
:104348002DF013D000D03150030D5D0EF324F66E1E
:10435800FE0EF420F76E0900F5CF2BF00900F5CF1B
:104368002CF00A00F5CF2DF000D012000001C96F23
:104378006D0E0001C965B6D0000E0001916F030EE5
:10438800906F000E0001976F0A0E966F000E0001E5
:10439800BD6F640EBC6FC9C0BAF00001BB6B87EC7F
:1043A8003DF0BAC094F0BBC095F074EC3AF0090E39
:1043B8000001942500018E6F000E00019521000177
:1043C8008F6F7FEC46F0360E00018E25F66EFE0EDE
:1043D80000018F21F76E0900F5CF9FF00900F5CF96
:1043E800A0F00A00F5CFA1F0000E0001976F640E4F
:1043F800966FC9C094F00001956B74EC3AF0120EF8
:104408000001942500018E6F000E00019521000126
:104418008F6F000E0001916F030E906F7FEC46F0D6
:10442800360E00018E25F66EFE0E00018F21F76E06
:104438000900F5CF9CF00900F5CF9DF00A00F5CFF3
:104448009EF0DEEC2EF09CC0C6F09DC0C7F09EC06A
:10445800C8F0000E0001916F030E906F000E00016E
:10446800BD6F0A0EBC6FC9C0BAF00001BB6B87EC08
:104478003DF0BAC08EF0BBC08FF07FEC46F0360E30
:1044880000018E25F66EFE0E00018F21F76E0900E1
:10449800F5CF9FF00900F5CFA0F00A00F5CFA1F005
:1044A800C6C09CF0C7C09DF0C8C09EF0DEEC2EF0E0
:1044B8009CC0C3F09DC0C4F09EC0C5F0C3C09CF0B2
:1044C800C4C09DF0C5C09EF0000E00019F6F000E95
:1044D8000001A06F3F0E0001A16FDEEC2EF093D01B
:1044E80099D074D00A0E0001C96570D0000E000181
:1044F800916F030E906F000E0001BD6F0A0EBC6F26
:10450800C9C0BAF00001BB6B87EC3DF0BAC08EF0B1
:10451800BBC08FF07FEC46F0360E00018E25F66E9C
:10452800FE0E00018F21F76E0900F5CF9FF00900FC
:10453800F5CFA0F00A00F5CFA1F0000E0001976FAB
:104548000A0E966FC9C094F00001956B74EC3AF0AE
:10455800090E0001942500018E6F000E00019521BF
:1045680000018F6F000E0001916F030E906F7FECBA
:1045780046F0360E00018E25F66EFE0E00018F21E4
:10458800F76E0900F5CF9CF00900F5CF9DF00A0001
:10459800F5CF9EF0DEEC2EF09CC0C6F09DC0C7F0B3
:1045A8009EC0C8F0C6C09CF0C7C09DF0C8C09EF0B1
:1045B800000E00019F6F000E0001A06F3F0E00016A
:1045C800A16FDEEC2EF01FD025D000D00001C9511C
:1045D800030D360EF324F66EFE0EF420F76E090076
:1045E800F5CF9CF00900F5CF9DF00A00F5CF9EF0BD
:1045F800000E00019F6F000E0001A06F3F0E00012A
:10460800A16FDEEC2EF09CC0C0F09DC0C1F09EC032
:10461800C2F000D01200CCC0D0F00001D16BD26B38
:104628000001CB350001D03701E3D1810001D05121
:104638000001D56FCFC0D0F00001D16BD26B000163
:10464800CE350001D03701E3D1810001D0510001FE
:10465800D46F0001D5510001D8B411D00001D45154
:104668000001D55DD8B012D00001D5510008000175
:10467800D4250001D06F180E0001D06507D0CDC039
:10468800CAF0CEC0CBF0CFC0CCF003D10001D451DA
:104698000001D8B411D00001D5510001D45DD8B0C3
:1046A80012D00001D45100080001D5250001D06FB7
:1046B800180E0001D06507D0CAC0CAF0CBC0CBF035
:1046C800CCC0CCF0E6D0060E0001D36F0001CCAF11
:1046D80003D00001D38F00D00001CFAF02D000017A
:1046E800D38D0001CB8FFF0E0001CA17FF0E00010A
:1046F800CB17000E0001CC170001CE8FFF0E000172
:10470800CD17FF0E0001CE17000E0001CF170001D4
:10471800D4510001D55DD8B028D00001D890CD374C
:10472800CE37CF370001D4070001D5510001D41985
:10473800D8B413D00001D307D3C0D0F0070E0001BE
:10474800D017D8B40AD0E9D708D00001D890CC3314
:10475800CB33CA330001D52B00D00001D45100015E
:10476800D519D8B430D0F1D72ED00001D5510001D9
:10477800D45DD8B028D00001D890CA37CB37CC3711
:104788000001D5070001D5510001D419D8B413D0C0
:104798000001D307D3C0D0F0070E0001D017D8B45A
:1047A8000AD0E9D708D00001D890CF33CE33CD3323
:1047B8000001D42B00D00001D4510001D519D8B480
:1047C80002D0F1D700D00001D3AF12D0FF0E000104
:1047D800CA1BFF0E0001CB1BFF0E0001CC1B010EF4
:1047E8000001CA27000E0001CB23000E0001CC23D4
:1047F8000001D3AD13D0FF0E0001CD1BFF0E000149
:10480800CE1BFF0E0001CF1B010E0001CD27000EAD
:104818000001CE23000E0001CF2300D0000E0001BE
:10482800D36F0001CA510001CD270001CB5100010F
:10483800CE230001CC510001CF230001CFAF16D009
:10484800FF0E0001CD1BFF0E0001CE1BFF0E000165
:10485800CF1B010E0001CD27000E0001CE23000E54
:104868000001CF23010E0001D36F00D0CDC08EF020
:10487800CEC08FF0CFC090F0D5C091F0D3C092F0E9
:10488800A0EC32F08EC0CAF08FC0CBF090C0CCF054
:1048980000D012009DC0A1F09EC0A2F00001A11F8F
:1048A800A21FA14BA22B010E0001A1250001A76F99
:1048B800000E0001A2210001A86F000E0001A46FE4
:1048C800010EA36F9DC0A1F09EC0A2F0D890000178
:1048D800A137A2370001A11FA21FA14BA22BA1C083
:1048E800A5F0A2C0A6F0000E0001AA6F000EA96FE5
:1048F8009DC0ABF09EC0ACF000019B5100019D250E
:104908000001956F9FC096F0A0C097F000019951E3
:10491800DFEC45F000019D51000800019B250001D6
:10492800956F9FC096F0A0C097F000019951DFECF9
:1049380045F09BC095F09FC096F0A0C097F000018D
:10494800995100019D25DFEC45F09BC095F09FC073
:1049580096F0A0C097F000019D510008000199252C
:10496800DFEC45F0ADD00001A8BF11D00001AB07C6
:10497800D8A0AC07020E0001A527000EA62300014F
:10498800A5510001A7270001A6510001A823000195
:10499800A94BAA2B020E0001A327000EA423000195
:1049A800A3510001A7270001A4510001A823000179
:1049B8009B510001AB250001956F9FC096F0A0C0E8
:1049C80097F0000199510001A925DFEC45F000019D
:1049D8009B510001AB250001956F9FC096F0A0C0C8
:1049E80097F00001A951000800019925DFEC45F076
:1049F8000001AB51000800019B250001956F9FC085
:104A080096F0A0C097F0000199510001A925DFECAC
:104A180045F00001AB51000800019B250001956F8E
:104A28009FC096F0A0C097F00001A95100080001AE
:104A38009925DFEC45F000019B510001A9250001F3
:104A4800956F9FC096F0A0C097F0000199510001A2
:104A5800AB25DFEC45F000019B510001A9250001C1
:104A6800956F9FC096F0A0C097F00001AB51000869
:104A780000019925DFEC45F00001A951000800016B
:104A88009B250001956F9FC096F0A0C097F000018C
:104A980099510001AB25DFEC45F00001A951000850
:104AA80000019B250001956F9FC096F0A0C097F06C
:104AB8000001AB51000800019925DFEC45F000D05A
:104AC8000001AB510001A95D0001AA51800A000153
:104AD800A16F0001AC51800A0001A159D8A043D7A9
:104AE80012000001AB6F240E0001AD6F1E0E000115
:104AF800AC6F05D10001AC51440F0001A06F190E35
:104B08000001A16F020E0001A26F000E0001A46F48
:104B1800000EA36F0001AD51020DF3500E0FFAEC19
:104B280042F0440E0001A06F190E0001A16F020EA1
:104B38000001A26F000E0001A46F000EA36F000118
:104B4800AD51020DF3500E0FFAEC42F0440E000185
:104B5800A06F190E0001A16F020E0001A26F070ECF
:104B68000001A46FA3690E0EFAEC42F0DDD0440EEA
:104B78000001A06F190E0001A16F020E0001A26FC3
:104B8800000E0001A46F000EA36F0E0EFAEC42F0A7
:104B9800440E0001A06F190E0001A16F020E000162
:104BA800A26F070E0001A46FA3690001AD510E0F9B
:104BB800FAEC42F0B9D0440E0001A06F190E0001C2
:104BC800A16F020E0001A26F000E0001A46F000E7B
:104BD800A36F0001AD510E0FFAEC42F0440E000134
:104BE800A06F190E0001A16F020E0001A26F070E3F
:104BF8000001A46FA3690001AD51020DF3500E0F1F
:104C0800FAEC42F091D0440E0001A06F190E000199
:104C1800A16F020E0001A26F000E0001A46F000E2A
:104C2800A36F0001AD51020DF3500E0FFAEC42F0E4
:104C38000001AC51440F0001A06F190E0001A16FD3
:104C4800020E0001A26F070E0001A46FA3690E0EE9
:104C5800FAEC42F069D00001AC51440F0001A06F9A
:104C6800190E0001A16F020E0001A26F000E0001D3
:104C7800A46F000EA36F0E0EFAEC42F00001AC51C7
:104C8800440F0001A06F190E0001A16F020E000170
:104C9800A26F070E0001A46FA3690001AD510E0FAA
:104CA800FAEC42F041D00001AC51440F0001A06F72
:104CB800190E0001A16F020E0001A26F000E000183
:104CC800A46F000EA36F0001AD510E0FFAEC42F075
:104CD8000001AC51440F0001A06F190E0001A16F33
:104CE800020E0001A26F070E0001A46FA369000164
:104CF800AD51020DF3500E0FFAEC42F015D0000141
:104D0800AB51000AD8B4F6D6010AD8B430D7030A92
:104D1800D8B451D7010AD8B476D7070AD8B49BD7E4
:104D2800010AD8B4C0D700D01200346E6D0E3464B6
:104D38009BD0000E126E030E116E000E0A6E0A0E44
:104D4800096E000E046E640E036E34C001F0026A30
:104D58002AEC41F001C007F002C008F0C9EC3FF0AE
:104D6800090E07240F6E000E0820106E95EC47F010
:104D7800360E0F24F66EFE0E1020F76E0900F5CFE2
:104D88001FF00900F5CF20F00A00F5CF21F0000E42
:104D98000A6E640E096E34C007F0086AC9EC3FF069
:104DA800120E07240F6E000E0820106E000E126EF1
:104DB800030E116E95EC47F0360E0F24F66EFE0EBC
:104DC8001020F76E0900F5CF1CF00900F5CF1DF093
:104DD8000A00F5CF1EF054EC36F01CC031F01DC0AF
:104DE80032F01EC033F0000E126E030E116E000E6C
:104DF800046E0A0E036E34C001F0026A2AEC41F018
:104E080001C00FF002C010F095EC47F0360E0F24E9
:104E1800F66EFE0E1020F76E0900F5CF1FF00900A0
:104E2800F5CF20F00A00F5CF21F031C01CF032C0D8
:104E38001DF033C01EF054EC36F01CC02EF01DC01F
:104E48002FF01EC030F02EC01CF02FC01DF030C057
:104E58001EF0000E1F6E000E206E3F0E216E54ECE9
:104E680036F07DD083D062D00A0E34645FD0000E55
:104E7800126E030E116E000E046E0A0E036E34C01D
:104E880001F0026A2AEC41F001C00FF002C010F0F4
:104E980095EC47F0360E0F24F66EFE0E1020F76ED6
:104EA8000900F5CF1FF00900F5CF20F00A00F5CF73
:104EB80021F0000E0A6E0A0E096E34C007F0086A67
:104EC800C9EC3FF0090E07240F6E000E0820106E83
:104ED800000E126E030E116E95EC47F0360E0F247D
:104EE800F66EFE0E1020F76E0900F5CF1CF00900D3
:104EF800F5CF1DF00A00F5CF1EF054EC36F01CC0BB
:104F080031F01DC032F01EC033F031C01CF032C089
:104F18001DF033C01EF0000E1F6E000E206E3F0EF7
:104F2800216E54EC36F01BD021D000D03450030D44
:104F3800360EF324F66EFE0EF420F76E0900F5CF58
:104F48001CF00900F5CF1DF00A00F5CF1EF0000E89
:104F58001F6E000E206E3F0E216E54EC36F01CC002
:104F68002BF01DC02CF01EC02DF000D01200000147
:104F7800AB6F240E0001AD6F1E0E0001AC6F01D1A6
:104F8800440E0001A06F190E0001A16F020E00016E
:104F9800A26F000E0001A46F000EA36F0001AD51B7
:104FA8000E0FFAEC42F0440E0001A06F190E00013A
:104FB800A16F020E0001A26F070E0001A46FA36982
:104FC8000E0EFAEC42F0F2D0440E0001A06F190E5A
:104FD8000001A16F020E0001A26F000E0001A46F74
:104FE800000EA36F0001AD51020DF3500E0FFAEC45
:104FF80042F0440E0001A06F190E0001A16F020ECD
:105008000001A26F070E0001A46FA3690001AD5152
:105018000E0FFAEC42F0CAD0440E0001A06F190E30
:105028000001A16F020E0001A26F000E0001A46F23
:10503800000EA36F0E0EFAEC42F00001AC51440FC3
:105048000001A06F190E0001A16F020E0001A26FEE
:10505800000E0001A46F000EA36F0E0EFAEC42F0D2
:10506800440E0001A06F190E0001A16F020E00018D
:10507800A26F070E0001A46FA3690001AD51020DD4
:10508800F3500E0FFAEC42F091D00001AC51440FEE
:105098000001A06F190E0001A16F020E0001A26F9E
:1050A800000E0001A46F000EA36F0001AD510E0F9A
:1050B800FAEC42F00001AC51440F0001A06F190E48
:1050C8000001A16F020E0001A26F070E0001A46F7C
:1050D800A3690E0EFAEC42F069D00001AC51440FFE
:1050E8000001A06F190E0001A16F020E0001A26F4E
:1050F800000E0001A46F000EA36F0001AD51020D58
:10510800F3500E0FFAEC42F00001AC51440F0001CD
:10511800A06F190E0001A16F020E0001A26F070E09
:105128000001A46FA3690001AD510E0FFAEC42F023
:105138003DD0440E0001A06F190E0001A16F020EB0
:105148000001A26F000E0001A46F000EA36F0E0EE7
:10515800FAEC42F00001AC51440F0001A06F190EA7
:105168000001A16F020E0001A26F070E0001A46FDB
:10517800A3690001AD51020DF3500E0FFAEC42F095
:1051880015D00001AB51000AD8B4FAD6010AD8B438
:105198001BD7030AD8B440D7010AD8B476D7070A70
:1051A800D8B49BD7010AD8B4C4D700D012002CECCD
:1051B80043F0ADEC1DF0000E0101A66F000EA56FC7
:1051C8008EEC42F050EC44F00101356900D0ABECB4
:1051D80041F00001F05101013519D8B4A4D0F0C054
:1051E80035F1BDEC45F09CC0AFF19DC0B0F1C4EC09
:1051F80042F0D6C09CF1D7C09DF1D8C09EF1D90E1F
:105208000101CA6FFF0E0101CB6F9CC1CCF19DC19A
:10521800CDF19EC1CEF10EEC00F074EC45F091C0DA
:10522800A1F192C0A2F1A1C18EF0A2C18FF0000E2F
:105238000001916F090E906F7FEC46F08EC094F0DC
:105248008FC095F0000E0001976F050E966F74ECF5
:105258003AF0200E000194250101A36F000E000111
:1052680095210101A46FA40E0101CA6FFE0E010170
:10527800CB6FEDC0CCF10101CD6BEEC0CEF10101D9
:10528800CF6BF0C0D0F10101D16BEFC0D2F10101B9
:10529800D36BEAC0D4F10101D56BF1C0D6F101019D
:1052A800D76B0EEC00F0190E0101CA6FFF0E010159
:1052B800CB6FA1C1CCF1A2C1CDF1A3C1CEF1A4C1E4
:1052C800CFF10EEC00F0D80E0101CA6FFE0E0101FD
:1052D800CB6F80A404D00101DE6BDE2B02D001016C
:1052E800DE6B0101DE510101CC6FCD6BA5C1CEF1A2
:1052F800A6C1CFF10EEC00F0420E0101CA6FFF0EFD
:105308000101CB6FAFC1CCF1B0C1CDF1EBC0CEF193
:105318000101CF6B0EEC00F0B6EC46F054EC35F022
:10532800B1EC17F000D07DEC3FF0E806D8A42DD002
:10533800000E0101AE6F000EAD6F17D057EC48F0AC
:105348004BEC37F022D057EC48F005EC3AF01DD082
:1053580057EC48F0E0EC3EF018D057EC48F0E4EC9D
:1053680048F013D064EC48F010D00001EC51000A6A
:10537800D8B4E4D7010AD8B4E6D7030AD8B4E8D732
:10538800070AD8B4EAD7EED700D00101B405D8A4EB
:105398001ED7000E0101B46F01019F510101A01138
:1053A800D8A405D0000E0101A06F010E04D0000E94
:1053B8000101A06F000E9F6F0AD70CEF00F0C5C166
:1053C80094F00001956B000E0001976F0A0E966F1E
:1053D80074EC3AF000019451300F01015B6FC5C1C4
:1053E800BAF00001BB6B000E0001BD6F0A0EBC6F66
:1053F80087EC3DF00001BA51300F01015C6FC6C166
:1054080094F00001956B000E0001976F0A0E966FDD
:1054180074EC3AF000019451300F01015E6FC6C17F
:10542800BAF00001BB6B000E0001BD6F0A0EBC6F25
:1054380087EC3DF00001BA51300F01015F6FC8C120
:1054480094F00001956B000E0001976F0A0E966F9D
:1054580074EC3AF000019451300F0101616FC8C13A
:10546800BAF00001BB6B000E0001BD6F0A0EBC6FE5
:1054780087EC3DF00001BA51300F0101626FC7C1DE
:1054880094F00001956B000E0001976F0A0E966F5D
:1054980074EC3AF000019451300F0101526FC7C10A
:1054A800BAF00001BB6B000E0001BD6F0A0EBC6FA5
:1054B80087EC3DF00001BA51300F0101536FC3C1B1
:1054C80094F00001956B000E0001976F0A0E966F1D
:1054D80074EC3AF000019451300F0101556FC3C1CB
:1054E800BAF00001BB6B000E0001BD6F0A0EBC6F65
:1054F80087EC3DF00001BA51300F0101566FC9C168
:1055080094F00001956B000E0001976F0A0E966FDC
:1055180074EC3AF000019451300F0101586FC9C181
:10552800BAF00001BB6B000E0001BD6F0A0EBC6F24
:1055380087EC3DF00001BA51300F0101596F340E6C
:105548000001B66F5B0E0001B76F010E0001B86F66
:10555800070E0001BA6FB969000E0001BC6F000E9A
:10556800BB6F020E0001BD6F0F0E0BEC32F0520E36
:105578000001B66F520E0001B76F010E0001B86F3F
:10558800070E0001BA6FE00EB96F000E0001BC6F84
:10559800000EBB6F020E0001BD6F0F0E0BEC32F058
:1055A80012000001B36F800E0001B361E5D09F0EB9
:1055B8000001AB6501D0E0D00001B1510001D8A4D1
:1055C80004D0010E0001B16F00D01F0E0001AC65C0
:1055D80005D07E0E0001AC6504D000D03F0E00015E
:1055E800AC6F000E0001B56F040E0001B56501D067
:1055F800C3D0530E0001AC611DD0E00E0001AC25F4
:1056080000018E6F00018F6BFF0E8F23000E0001CB
:10561800916F050E906F7FEC46F00001B5510001C7
:105628008E27000E00018F23330E00018E25F66EA3
:10563800FC0E1CD0AD0E0001AC2500018E6F0001E0
:105648008F6BFF0E8F23000E0001916F050E906F78
:105658007FEC46F00001B55100018E27000E0001D5
:105668008F23320E00018E25F66EFD0E00018F216C
:10567800F76E0800F5CFB2F000D0000E0001B46F4D
:10568800060E0001B46501D074D00001B2A130D07B
:105698000001B105D8A411D00001AB510001B42517
:1056A8000001956FADC096F0AEC097F00001B35100
:1056B8000001B525DFEC45F056D00001B4510001DA
:1056C800B103F3500001AB250001A06FB1C0A1F0F8
:1056D800B1C0A2F0ADC0A3F0AEC0A4F00001B551B6
:1056E8000001B103F3500001B325FAEC42F03BD0BE
:1056F8000001AD510001AF1906E10001AE510001F2
:10570800B019D8B430D00001B105D8A411D0000127
:10571800AB510001B4250001956FAFC096F0B0C041
:1057280097F00001B3510001B525DFEC45F01BD01F
:105738000001B4510001B103F3500001AB25000191
:10574800A06FB1C0A1F0B1C0A2F0AFC0A3F0B0C0CB
:10575800A4F00001B5510001B103F3500001B325D5
:10576800FAEC42F000D00001B42B0001D890B2331B
:1057780087D70001B52B38D7120037C03BF03C6AF9
:105788003D6A36343B3601E33C803B50406E3AC0BC
:105798003BF03C6A3D6A39343B3601E33C803B5080
:1057A8003F6E4050D8B40BD03F50405CD8B00ED0BC
:1057B800405000083F243B6E180E3B6407D038C0A9
:1057C80035F039C036F03AC037F0B8D03F50D8B4C9
:1057D8000BD040503F5CD8B00ED03F50000840245A
:1057E8003B6E180E3B6407D035C035F036C036F036
:1057F80037C037F0A3D0060E3E6E37AE02D03E8ECD
:1058080000D03ABE3E8C368EFF0E3516FF0E361689
:10581800000E3716398EFF0E3816FF0E3916000E99
:105828003A163F50405CD8B01ED0D890383639363A
:105838003A363F0640503F18D8B40FD03E063EC017
:105848003BF0070E3B16D8B408D0EFD706D0D89057
:10585800373236323532402A00D03F504018D8B45B
:1058680024D0F5D722D040503F5CD8B01ED0D89075
:10587800353636363736400640503F18D8B40FD044
:105888003E063EC03BF0070E3B16D8B408D0EFD713
:1058980006D0D8903A32393238323F2A00D03F50B9
:1058A8004018D8B402D0F5D700D03EAE0CD0FF0EC9
:1058B800351AFF0E361AFF0E371A010E3526000E5E
:1058C8003622000E37223EAC0DD0FF0E381AFF0EDE
:1058D800391AFF0E3A1A010E3826000E3922000E28
:1058E8003A2200D0000E3E6E355038263650392206
:1058F80037503A223AAE0FD0FF0E381AFF0E391A37
:10590800FF0E3A1A010E3826000E3922000E3A22EE
:10591800010E3E6E00D038C001F039C002F03AC026
:1059280003F040C004F03EC005F0A6EC3BF001C017
:1059380035F002C036F003C037F000D01200F29202
:105948000101B951D8B4B6D0CE50CFCF01F0026A18
:1059580001C002F0016A01107B6E02507C6E000EDD
:10596800CF6E000ECE6EA6D0000ECF6E000ECE6E9D
:105978009E90900ECD6ECD80000E0101BD6F000E81
:105988000101986F000E996F000E9A6F000E9B6FC1
:10599800010E0101B96F8CD09FD01C0E7B5C250EC7
:1059A8007C58D8B00AD0350E7B5C210E7C58D8A024
:1059B80004D0020E0101B96F2BD06AEC49F028D04F
:1059C80027D08AD0880E7B5C130E7C58D8B00AD0BA
:1059D800A10E7B5C0F0E7C58D8A004D0030E0101E9
:1059E800B96F66D06AEC49F063D062D075D0BC0E4E
:1059F8007B5C020E7C58D8B008D0910E7B5C010EFF
:105A08007C58D8A002D0040ED5D76AEC49F000D053
:105A1800F19C62D0080E7B5C070E7C58D8B045D04C
:105A2800910E7B5C010E7C58D8A03FD0D890010124
:105A380098350101986F010199350101996F0101AC
:105A48009A3501019A6F01019B3501019B6FE90E9F
:105A58007B5C030E7C58D8A014D0010E0101982558
:105A68000101986F000E010199210101996F000E43
:105A780001019A2101019A6F000E01019B21010188
:105A88009B6F0101BD290101BD6F1F0E0101BD659D
:105A9800A5D7000E0101AE6F010EAD6F99C1B8F127
:105AA800F298000E0101B96F99D76AEC49F000D05D
:105AB800F18C12D00101B951000AD8B455D7010AA6
:105AC800D8B46BD7030AD8B47DD7010AD8B48FD716
:105AD800070AD8B49FD700D0120090C094F00001F4
