:040000000CEF00F011
:10000800FACF03F0FBCF04F0E9CF05F02CED0DF0AB
:10001800ECEF0CF046AE1CD02D0E0001E36F7F0E06
:100028004614176E186A000E1A6E0A0E196E1CEC2A
:100038000CF01750300F0001E46F7F0E46141F6E4E
:10004800206A000E226E0A0E216EABEC0CF01BD05B
:100058002B0E0001E36F46C017F047C018F0000EE2
:100068001A6E0A0E196E1CEC0CF01750300F0001B6
:10007800E46F46C01FF047C020F0000E226E0A0E43
:10008800216EABEC0CF01F50300F0001E56F00D073
:1000980049AE29D02D0E0001E76F48C0F4F049C0E1
:1000A800F5F00001F41FF51FF44BF52BF4C0F6F042
:1000B800F5C0F7F0F6C017F0F7C018F0000E1A6E8A
:1000C8000A0E196E1CEC0CF01750300F0001E86F87
:1000D800F6C01FF0F7C020F0000E226E0A0E216E47
:1000E800ABEC0CF01BD02B0E0001E76F48C017F0EB
:1000F80049C018F0000E1A6E0A0E196E1CEC0CF0AE
:100108001750300F0001E86F48C01FF049C020F0B9
:10011800000E226E0A0E216EABEC0CF01F50300F51
:100128000001E96F00D05E380F0B300F0001CD6F72
:100138005E500F0B300F0001CE6F5F380F0B300F82
:100148000001D06F5F500F0B300F0001D16F623884
:100158000F0B300F0001D36F62500F0B300F0001EF
:10016800D46F60380F0B300F0001C46F60500F0B55
:10017800300F0001C56F5A380F0B300F0001C76FE1
:100188005A500F0B300F0001C86F6C380F0B300F2F
:100198000001CA6F6C500F0B300F0001CB6F500479
:1001A800D8A40BD0DF0E116E000E126EED0E136E7A
:1001B800FF0E146EEBEC0FF00BD0DF0E116E000E7D
:1001C800126EF10E136EFF0E146EEBEC0FF000D0F2
:1001D8005CC017F0186A000E1A6E640E196E1CECDB
:1001E8000CF01750300F0001DB6F000E1A6E0A0E6C
:1001F800196E5CC017F0186A1CEC0CF017C01FF0E1
:1002080018C020F0000E226E0A0E216EABEC0CF026
:100218001F50300F0001DC6F5CC01FF0206A000E19
:10022800226E0A0E216EABEC0CF01F50300F00014D
:10023800DD6F4CC017F04DC018F0030E1A6EE80EB3
:10024800196E1CEC0CF01750300F0001D66F000E21
:100258001A6E640E196E4CC017F04DC018F01CECE5
:100268000CF017C01FF018C020F0000E226E0A0E06
:10027800216EABEC0CF01F50300F0001D76F000E51
:100288001A6E0A0E196E4CC017F04DC018F01CEC0F
:100298000CF017C01FF018C020F0000E226E0A0ED6
:1002A800216EABEC0CF01F50300F0001D86F4CC022
:1002B8001FF04DC020F0000E226E0A0E216EABEC2E
:1002C8000CF01F50300F0001D96F170E396EE30E76
:1002D8003A6E000E3B6EFF0E3D6EE00E3C6E000E59
:1002E8003F6E000E3E6E020E406E010EFEEC07F0F1
:1002F800170E396EE70E3A6E000E3B6EFF0E3D6E1E
:10030800E00E3C6E000E3F6E000E3E6E020E406E1A
:10031800460EFEEC07F0340E396ECD0E3A6E000E26
:100328003B6E070E3D6E3C68000E3F6E000E3E6E43
:10033800020E406E0F0EFEEC07F0520E396EC40E20
:100348003A6E000E3B6E070E3D6EE00E3C6E000EE0
:100358003F6E000E3E6E020E406E0F0EFEEC07F072
:10036800820E396EDF0E3A6E000E3B6EF80E3D6E51
:10037800000E3C6E000E3F6E000E3E6E010E406E8B
:100388005F0EFEEC07F0960E396EDB0E3A6E000E2D
:100398003B6E070E3D6EE00E3C6E000E3F6E000E8B
:1003A8003E6E010E406E0A0EFEEC07F0960E396E98
:1003B800D60E3A6E000E3B6E070E3D6EE00E3C6E9A
:1003C800000E3F6E000E3E6E010E406E5D0EFEEC9E
:1003D80007F012001F0E306E000E316E99D1250EF7
:1003E8003818D8B404D038505DEC11F091D1000E13
:1003F800376E000E366E000E356E05D035841D4AF8
:100408001E2A01D00BD01DC0F6FF1EC0F7FF080042
:10041800F550300AD8B4F2D701D0F5D71DC0F6FF91
:100428001EC0F7FF0800F5506AEC10F0D8A03BD0CA
:10043800000E376E000E366E00D036C011F037C091
:1004480012F0000E146E0A0E136E31EC10F011C08B
:1004580036F012C037F0D00E2B6EFF0E2C6E1DC07A
:10046800F6FF1EC0F7FF0800F5502D6E2E6A2B50C0
:100478002D262C502E222D5036262E5037221D4A3E
:100488001E2A1DC0F6FF1EC0F7FF0800F5506AECD3
:1004980010F0D8A008D0D1D706D048D11BD0358EBF
:1004A80019D036D117D01DC0F6FF1EC0F7FF1D4A60
:1004B8001E2A0800F5CF38F03850000AD8B436D1D3
:1004C800640AD8B407D00D0AD8B404D0110AD8B435
:1004D800E6D71ED135BE15D030C0D9FF31C0DAFFFE
:1004E800DECF33F0DDCF34F0020E3026000E31229D
:1004F80034AE4ED0030E3512336C341ED8B0342AC5
:1005080047D030C0D9FF31C0DAFFDECF33F0DDCFBE
:1005180034F0020E3026000E31223AD0010E386E29
:10052800050E3818D8B43DD001D03BD03850020D54
:10053800E80EF324F66EFE0EF420F76E0900F5506F
:10054800335C0900F5503458D8A02BD001D029D0FD
:10055800382AE6D726D0010E386E040E3818D8B4DB
:1005680020D001D01ED03850020DF20EF324F66EC2
:10057800FE0EF420F76E0900F550335C0900F550C3
:100588003458D8A00ED001D00CD0382AE6D709D0DC
:100598003550800B000AD8B4C1D7800AD8B4DBD74D
:1005A80000D036503710D8B40AD035C02BF0030E1F
:1005B8002B16D8B404D03606D8A0370600D0800E43
:1005C80038BE7F0E2B6E3650385C3750800A2B5859
:1005D800D8B007D03850365E000E38BEFF0E375AF6
:1005E80005D0000E376E000E366E00D035A41AD036
:1005F80035C02BF0030E2B16D8B404D02D0E5DECAD
:1006080011F000D036503710D8B426D0300E5DEC3B
:1006180011F03606D8A0370636503710D8B41CD09B
:10062800F5D71AD036503710D8B40CD0200E5DEC60
:1006380011F03606D8A0370636503710D8B402D095
:10064800F5D700D035C02BF0030E2B16D8B404D044
:100658002D0E5DEC11F000D038C032F053D045D0EB
:100668003250020DE80EF324F66EFE0EF420F76EFB
:100678000900F5CF13F00A00F5CF14F033C011F0DC
:1006880034C012F03DEC0EF011C018F012C019F091
:10069800000E1B6E0A0E1A6EE2EC0EF01850300FA8
:1006A800386E2CD033C011F034C012F03250020D25
:1006B800F20EF324F66EFE0EF420F76E0900F5CF65
:1006C80013F00A00F5CF14F03DEC0EF011500F0BAB
:1006D8002F6E2F50010D980EF324F66EFF0EF420A6
:1006E800F76E0800F5CF38F009D03550800B000AB6
:1006F800D8B4B6D7800AD8B4D5D700D038505DEC76
:1007080011F000D032063228D8B402D0EED700D08B
:100718001DC0F6FF1EC0F7FF1D4A1E2A0800F5CFB0
:1007280038F03850D8B402D05AD600D0120020EC95
:1007380011F01CEC10F0000E256E000E246EABECD0
:1007480010F0000E4E6E010E4F6E4EC011F04FC0ED
:1007580012F0440E136EFF0E146EEBEC0FF0010E48
:10076800396E4EC03AF04FC03BF0FF0E3D6E3C680C
:10077800000E3F6E000E3E6E010E406E010EFEEC46
:1007880007F04EC011F04FC012F0C80E136EFF0EE6
:10079800146EEBEC0FF00B0E396E4EC03AF04FC0F2
:1007A8003BF0F80E3D6E1F0E3C6E000E3F6E000EC5
:1007B8003E6E010E406E180EFEEC07F0000E1D6E28
:1007C800280E1C6E000E1F6E170E1E6E000E216E78
:1007D800020E206EFF0E236EE00E226EC9EC05F0AD
:1007E8004EC011F04FC012F0F90E136EFF0E146ECA
:1007F800EBEC0FF0170E396E4EC03AF04FC03BF0DD
:10080800FF0E3D6EE00E3C6E000E3F6E000E3E6E1B
:10081800020E406E2D0EFEEC07F04EC011F04FC0D8
:1008280012F0F30E136EFF0E146EEBEC0FF0000EC9
:100838001D6E6E0E1C6E000E1F6E170E1E6E000EC5
:10084800216E020E206EFF0E236EE00E226EC9ECA2
:1008580005F0170E396E4EC03AF04FC03BF0FF0E50
:100868003D6EE00E3C6E000E3F6E000E3E6E020EB8
:10087800406E730EFEEC07F04EC011F04FC012F040
:10088800E30E136EFF0E146EEBEC0FF0280E396EAC
:100898004EC03AF04FC03BF0000E3D6E1F0E3C6E4E
:1008A800000E3F6E000E3E6E010E406E320EFEECE4
:1008B80007F04EC011F04FC012F0E80E136EFF0E95
:1008C800146EEBEC0FF0470E396E4EC03AF04FC085
:1008D8003BF0F80E3D6E000E3C6E000E3F6E000EB3
:1008E8003E6E010E406E320EFEEC07F04EC011F067
:1008F8004FC012F0DD0E136EFF0E146EEBEC0FF00E
:10090800780E396E4EC03AF04FC03BF0000E3D6E87
:100918001F0E3C6E000E3F6E000E3E6E010E406EC6
:10092800550EFEEC07F04EC011F04FC012F0FC0E51
:10093800136EFF0E146EEBEC0FF08C0E396E4EC07A
:100948003AF04FC03BF0FF0E3D6E3C68000E3F6E24
:10095800000E3E6E010E406E0C0EFEEC07F04EC00F
:1009680011F04FC012F0F50E136EFF0E146EEBEC83
:100978000FF08C0E396E4EC03AF04FC03BF0FF0EB0
:100988003D6E3C68000E3F6E000E3E6E010E406EDE
:100998005F0EFEEC07F01200BBEC0EF0D50E1D6EDC
:1009A800FF0E1E6EEEEC01F09BEC03F0320E5C6E57
:1009B800809A00D00BEC0EF062506E18D8B45ED05E
:1009C80062C06EF0CDEC0FF014C046F015C047F0D1
:1009D80046C011F047C012F0000E146E090E136ED7
:1009E80031EC10F011C017F012C018F0000E1A6E9A
:1009F800050E196E1CEC0CF0200E1724486E000E24
:100A08001820496E51EC0FF01FC04CF020C04DF07B
:100A1800FA0E1D6EFE0E1E6E5EC01FF0206A5FC0CD
:100A280021F0226A62C023F0246A60C025F0266A99
:100A38005AC027F0286A6CC029F02A6AEEEC01F047
:100A48006F0E1D6EFF0E1E6E46C01FF047C020F0D1
:100A580048C021F049C022F0EEEC01F0840E1D6E72
:100A6800FF0E1E6E4CC01FF04DC020F05CC021F080
:100A7800226AEEEC01F00EEC00F000D00001FC055B
:100A88000001FD11D8A496D7000E0001FD6F000EDD
:100A9800FC6FA90E1D6EFF0E1E6E51C01FF0206A5E
:100AA800EEEC01F0F288F19C5D68000E0101226F06
:100AB800000E216F010122BF0AD00101225120E15D
:100AC800150E0101215DD8B01BD001D019D0800EC0
:100AD80001012125D96E000E01012221DA6E515043
:100AE800DE18D8A408D021C15DF0000E0101226FE4
:100AF800150E216F00D00101214B222BDBD700D02E
:100B08005D28D8A407D0180E1D6EFF0E1E6EEEECE1
:100B180001F050D716EC11F0B90E1D6EFF0E1E6EC7
:100B28005DC01FF0206AEEEC01F0050E5D18D8A438
:100B380015D0F8EC10F0010E506E5A0E1D6EFF0E17
:100B48001E6EEEEC01F036D7000E506E33D72E0E27
:100B58001D6EFF0E1E6EEEEC01F02CD7060E5D1812
:100B6800D8A403D0B9EC10F025D7070E5D18D8A487
:100B780003D0C7EC10F01ED7080E5D18D8A41AD7FA
:100B8800D8EC0DF017D70CEF00F020C024F021C0EE
:100B980025F0241E251E244A252A010E24242A6E07
:100BA800000E25202B6E000E276E010E266E20C02B
:100BB80024F021C025F0D89024362536241E251E81
:100BC800244A252A24C028F025C029F0000E2D6EBD
:100BD800000E2C6E20C02EF021C02FF01E502024B5
:100BE800186E22C019F023C01AF01C5004EC10F043
:100BF800205000081E24186E22C019F023C01AF0D5
:100C08001C5004EC10F01EC018F022C019F023C0CC
:100C18001AF01C50202404EC10F01EC018F022C05A
:100C280019F023C01AF0205000081C2404EC10F01E
:100C380078D02BBE0BD02E06D8A02F06020E282661
:100C4800000E292228502A2629502B222C4A2D2AE8
:100C5800020E2626000E272226502A2627502B224F
:100C68001E502E24186E22C019F023C01AF01C50F2
:100C78002C2404EC10F01E502E24186E22C019F0FB
:100C880023C01AF02C5000081C2404EC10F02E503D
:100C980000081E24186E22C019F023C01AF01C5038
:100CA8002C2404EC10F02E5000081E24186E22C0CC
:100CB80019F023C01AF02C5000081C2404EC10F082
:100CC8001E502C24186E22C019F023C01AF01C5094
:100CD8002E2404EC10F01E502C24186E22C019F09B
:100CE80023C01AF02E5000081C2404EC10F02C50DD
:100CF80000081E24186E22C019F023C01AF01C50D8
:100D08002E2404EC10F02C5000081E24186E22C06B
:100D180019F023C01AF02E5000081C2404EC10F01F
:100D280000D02E502C5C2D50800A246E2F50800A43
:100D38002458D8A07ED71200F2925250D8B49DD031
:100D4800CE50CFCF01F0026A01C002F0016A011053
:100D58004A6E02504B6E000ECF6E000ECE6E8DD0D6
:100D6800000ECF6E000ECE6E9E90900ECD6ECD8092
:100D7800000E586E000E426E000E436E000E446E5A
:100D8800000E456E010E526E76D088D01C0E4A5C5D
:100D9800250E4B58D8B009D0350E4A5C210E4B5859
:100DA800D8A003D0020E526E2AD096EC11F027D0AC
:100DB80026D074D0880E4A5C130E4B58D8B009D090
:100DC800A10E4A5C0F0E4B58D8A003D0030E526EEA
:100DD80052D096EC11F04FD04ED060D0BC0E4A5C89
:100DE800020E4B58D8B008D0910E4A5C010E4B58F1
:100DF800D8A002D0040ED7D796EC11F000D0F19C01
:100E08004DD0080E4A5C070E4B58D8B031D0910E21
:100E18004A5C010E4B58D8A02BD0D8904234426E71
:100E28004334436E4434446E4534456EE90E4A5C9F
:100E3800030E4B58D8A00CD0010E4224426E000E6F
:100E48004320436E000E4420446E000E4520456E3C
:100E58005828586E1F0E5864B9D7000E0001FD6F50
:100E6800010EFC6F43C051F0F298000E526EAED7DF
:100E780096EC11F000D0F18C11D05250000AD8B481
:100E88006FD7010AD8B482D7030AD8B493D7010A16
:100E9800D8B4A4D7070AD8B4B4D700D01200366E95
:100EA800800E3660A6D09F0E2E6401D0A2D034509A
:100EB800D8A403D0010E346E00D01F0E2F6404D0C6
:100EC8007E0E2F6403D000D03F0E2F6E000E386EBA
:100ED800040E386401D08DD0530E2F6015D0E00E6B
:100EE8002F24116E126AFF0E1222000E146E050EC8
:100EF800136E31EC10F038501126000E12220D0E30
:100F08001124F66EFD0E14D0AD0E2F24116E126A48
:100F1800FF0E1222000E146E050E136E31EC10F047
:100F280038501126000E12220C0E1124F66EFE0EF9
:100F38001220F76E0800F5CF35F000D0000E376E9E
:100F4800060E376401D053D035A023D03404D8A47A
:100F58000CD02E503724186E30C019F031C01AF05A
:100F68003650382404EC10F03ED037503402F35099
:100F78002E24236E34C024F034C025F030C026F06F
:100F880031C027F038503402F350362408EC0FF003
:100F98002AD03050321804E131503318D8B423D055
:100FA8003404D8A40CD02E503724186E32C019F04F
:100FB80033C01AF03650382404EC10F014D03750EF
:100FC8003402F3502E24236E34C024F034C025F0AC
:100FD80032C026F033C027F038503402F35036249C
:100FE80008EC0FF000D0372AD8903532A9D7382A24
:100FF8006FD712000001ED6FEDC0F3F039C0F2F0C9
:101008003AC011F03BC012F070EC0FF011C0EEF0D6
:1010180012C0EFF0000E0001F16F000EF06F6AD001
:101028006F50D8B43AD04050050D0001F35100017B
:10103800EB6FEC6BF3500001EB27F4500001EC234D
:101048000001ECBF2AD00001EC5105E1810E00013E
:10105800EB5DD8A022D0000E0001F36F4050070DC1
:10106800F3500001F225030F0001F26FA00E0001FA
:10107800F26504D0A00E0001F26F00D00001F0511B
:101088003A24D96E0001F1513B20DA6E200EDE18A9
:10109800D8B42CD002D02AD000D0F2C02EF0000153
:1010A800F0513A24D96E0001F1513B20DA6EDF503D
:1010B8002F6E3CC030F03DC031F03EC032F03FC032
:1010C80033F040C034F00001F35153EC07F04050C6
:1010D800060DF3500001F3250001F36F800E0001A7
:1010E800F36504D0800E0001F36F00D00001F04BCF
:1010F800F12B00D00001EE510001F05D0001EF512D
:101108000001F159D8A08CD71200010E55EC11F04E
:10111800000E186E960E176E6BEC0EF0110E55EC55
:1011280011F0010E186EF40E176E6BEC0EF0B10E86
:1011380055EC11F0010E4DEC11F02C0E4DEC11F0A8
:101148002D0E4DEC11F0B20E55EC11F0010E4DECD8
:1011580011F02C0E4DEC11F02D0E4DEC11F0B30EDC
:1011680055EC11F0010E4DEC11F02C0E4DEC11F078
:101178002D0E4DEC11F0010E4DEC11F02C0E4DEC36
:1011880011F02D0E4DEC11F0B40E55EC11F0070EC8
:101198004DEC11F0C00E55EC11F0A20E4DEC11F013
:1011A800020E4DEC11F0840E4DEC11F0C10E55EC11
:1011B80011F0C50E4DEC11F0C20E55EC11F00A0EEF
:1011C8004DEC11F0000E4DEC11F0C30E55EC11F082
:1011D8008A0E4DEC11F02A0E4DEC11F0C40E55ECB0
:1011E80011F08A0E4DEC11F0EE0E4DEC11F0C50E1B
:1011F80055EC11F00E0E4DEC11F0200E55EC11F0DF
:10120800360E55EC11F0C80E4DEC11F03A0E55ECB7
:1012180011F0050E4DEC11F012001FC023F0246AE6
:10122800256A1E34233601E324802350266E265077
:10123800D8A402D00ED06CD022C023F0246A256A2C
:101248002134233601E3248023502B6E2B50D8A45D
:1012580007D0000E1D6E000E1E6E000E1F6E58D0B9
:101268002B507B0F26261FC02BF022502B1A800EE6
:101278002B161E8E218EFF0E2016FF0E2116000E35
:101288002216000E276E000E286E000E296E070E1D
:101298002A6E00D01DA007D02050272621502822D2
:1012A8002250292200D0D8901F321E321D32D890E9
:1012B8002036213622362A2EEDD700D0090E2A6E86
:1012C80000D01DA007D020502726215028222250C8
:1012D800292200D0D8901F321E321D32D8902932D0
:1012E800283227322A2EEDD700D027C011F028C087
:1012F80012F029C013F026C014F02BC015F058ECDA
:101308000BF011C01DF012C01EF013C01FF000D06A
:101318001200E00E55EC11F0020E4DEC11F01C0E0F
:101328004DEC11F0070E4DEC11F0120E4DEC11F0D2
:10133800370E4DEC11F0320E4DEC11F0290E4DEC3C
:1013480011F02D0E4DEC11F0290E4DEC11F0250E7B
:101358004DEC11F02B0E4DEC11F0390E4DEC11F057
:10136800000E4DEC11F0010E4DEC11F0030E4DEC9A
:1013780011F0100E4DEC11F0E10E55EC11F0030ECA
:101388004DEC11F01D0E4DEC11F0070E4DEC11F067
:10139800060E4DEC11F02E0E4DEC11F02C0E4DEC0E
:1013A80011F0290E4DEC11F02D0E4DEC11F02E0E12
:1013B8004DEC11F02E0E4DEC11F0370E4DEC11F0F6
:1013C8003F0E4DEC11F0000E4DEC11F0000E4DECFF
:1013D80011F0020E4DEC11F0100E4DEC11F0130E41
:1013E80055EC11F0000E186E0A0E176E6BEC0EF02D
:1013F800290E55EC11F0000E186E640E176E6BEC8A
:101408000EF0120013C015F0166A176A123415365A
:1014180001E3168015501F6E1F50D8A402D039D092
:1014280063D0170E156E11C016F012C017F013C056
:1014380018F01528196E04D0D890183217321632C1
:10144800192EFAD716501A6E128EFF0E1116FF0EAD
:101458001216000E131611501B6E12501C6E1350EC
:101468001D6E1E6A8E0E1F5E1FAE10D01F50800AA2
:101478008F0FD8B003D00DD037D000D0D8901E32FF
:101488001D321C321B321F3EF9D719D0170E1F64AC
:1014980011D0000E116E000E126E000E136E000EAB
:1014A800146E22D007D0D8901B361C361D361E3637
:1014B8001F0600D01F50D8B402D0F5D700D01A505C
:1014C800D8B409D01E1E1D1E1C1E1B6C000E1C222B
:1014D8001D221E2200D01BC011F01CC012F01DC01E
:1014E80013F01EC014F000D012002EC032F0336A80
:1014F800346A2D34323601E333803250396E395034
:10150800D8A402D00ED061D031C032F0336A346A28
:101518003034323601E3338032503A6E3A50D8A430
:1015280007D0000E2C6E000E2D6E000E2E6E4DD0C4
:10153800000E366E000E376E000E386E3A50890F68
:10154800395E2EC03AF031503A1A800E3A162D8E76
:10155800FF0E2C16FF0E2D16000E2E16308EFF0EC7
:101568002F16FF0E3016000E3116180E356E00D0ED
:10157800D8903636373638362F502C5C30502D58A8
:1015880031502E58D8A007D02F502C5E30502D5AED
:1015980031502E5A3680D8902C362D362E36352E90
:1015A800E7D700D036C011F037C012F038C013F0BA
:1015B80039C014F03AC015F058EC0BF011C02CF0FB
:1015C80012C02DF013C02EF000D01200236E800E32
:1015D800236069D09F0E186401D065D0FF0E1D6E80
:1015E800FF0E1E6E195023C01FF0206A1F26000E22
:1015F80020221D501F261E50202220BE0AD0205017
:1016080004E1800E1F5CD8A004D023500008800F8E
:10161800196EFF0E1D6EFF0E1E6E1A5018C01FF0B9
:10162800206A1F26000E20221D501F261E50202231
:1016380020BE0BD0205004E1A00E1F5CD8A005D01E
:1016480018500008A00F1A6E00D018C014F02350CC
:1016580019241D6E1D04156E18501A241E6E1E04C2
:10166800166E235094EC0EF01C50216E1BC022F015
:10167800838683981AC018F01850D8B413D001D0B4
:1016880011D019C023F02350D8B40AD001D008D003
:10169800215002EC11F0225002EC11F02306F3D78E
:1016A8001806EAD7838812001450D8B405D0115010
:1016B80012101310D8A40ED0000E116E000E126E68
:1016C800000E136E53D006D0142AD890133212325B
:1016D800113200D0000E1114166E000E1214176E7F
:1016E800FE0E1314186E165017101810D8B40ED01A
:1016F800EBD70CD0142A010E1126000E1222000E70
:101708001322D89013321232113200D0000E111465
:10171800166E000E1214176EFF0E1314186E165064
:1017280017101810D8B408D0E5D706D01406D890EA
:1017380011361236133600D012BE04D0020E1460D1
:10174800F5D700D014B002D0129E00D0D890143231
:10175800145013121550D8B402D0138E00D011C0F3
:1017680011F012C012F013C013F000D012000001E3
:10177800EE6F040ECB6E070ECA6E000E206E800E42
:10178800216E400E226E0001EE5145EC10F019C09A
:101798001DF01AC01EF01BC01FF011EC09F01DC08F
:1017A8002CF01EC02DF01FC02EF0000E2F6EA00EC4
:1017B800306E410E316E79EC0AF02CC0EBF02DC082
:1017C800ECF02EC0EDF0EBC011F0ECC012F0EDC063
:1017D80013F006EC0AF011C0EFF012C0F0F00001AF
:1017E800EE513B6E3C6A0001EF513B5C3C50800A75
:1017F8003D6E0001F051800A3D58D8B004D0000178
:10180800EF4BF02B00D0EFC03BF0030E3B163B38FC
:10181800F00B0C09BD6EEFC03BF0F0C03CF03C345F
:101828003C323B323C343C323B323B50BE6E1200C1
:10183800000E1C6E1AAE07D0196C1A1ED8B01A2AE0
:10184800010E1C6E00D018AE07D0176C181ED8B049
:10185800182A010E1C1A00D0000E1E6E000E1D6EF6
:1018680019501A10D8B421D0010E1B6E05D0D8908B
:1018780019361A361B2A00D01ABE02D0F8D700D063
:10188800D8901D361E361950175C1A501858D8A013
:1018980006D01950175E1A50185A1D8000D0D890DB
:1018A8001A3219321B2EECD700D01C50D8B405D0F0
:1018B8001D6C1E1ED8B01E2A00D01DC017F01EC0F9
:1018C80018F000D01200226E800E22603FD09F0ECA
:1018D800186401D03BD0FF0E1C6EFF0E1D6E195010
:1018E80018C01EF01F6A1E26000E1F221C501E263E
:1018F8001D501F221FBE0BD01F5004E1A00E1E5CFE
:10190800D8A005D018500008A00F196E00D01B50A1
:10191800206E1AC021F018C014F022C015F018501B
:1019280019241C6E1C04166E225094EC0EF083864B
:10193800839807D0205002EC11F0215002EC11F0EE
:1019480000D019061928D8A4F5D783881200000EEC
:10195800246E20AE07D01F6C201ED8B0202A010E9E
:10196800246E00D022AE05D0216C221ED8B0222AC7
:1019780000D021502210D8B41DD0010E236E05D0FE
:10198800D89021362236232A00D022BE02D0F8D79A
:1019980000D021501F5C22502058D8A005D02150DB
:1019A8001F5E2250205A00D0D89022322132232E96
:1019B800F0D700D02450D8B405D01F6C201ED8B062
:1019C800202A00D01FC01FF020C020F000D0120035
:1019D80000EEF8F0080EEE6AE806FDE100EE42F0CF
:1019E8002B0EEE6AE806FDE1F60EF66E200EF76E97
:1019F800000EF86E01EE00F010EE21F00900F5CFB0
:101A0800EEFFE550E150FAE1440EF66E1B0EF76E5C
:101A1800000EF86E00EE80F010EE6BF00900F5CFC6
:101A2800EEFFE550E150FAE1340EF66E230EF76E44
:101A3800000EF86E0900F5CF6DF00900F5CF6EF0D5
:101A48000900F5CF6FF0000EF86E0001D0EF04F03A
:101A58000600EACF06F0E1CF07F0E2CF08F0D9CFD1
:101A680009F0DACF0AF0F3CF0BF0F4CF0CF0F6CF91
:101A78000DF0F7CF0EF0F8CF0FF0F5CF10F09EA0D5
:101A880003D071EC11F000D0F2A203D0A0EC06F064
:101A980000D010C0F5FF0FC0F8FF0EC0F7FF0DC053
:101AA800F6FF0CC0F4FF0BC0F3FF0AC0DAFF09C051
:101AB800D9FF08C0E2FF07C0E1FF06C0EAFF05C082
:101AC800E9FF04C0FBFF03C0FAFF1100136E000E0C
:101AD800AC6E000EAB6E13A002D0AC8800D013A27F
:101AE80003D0AC8CAB8C00D013A402D0AC8E00D049
:101AF80013A602D0AB8802D0AB8A00D013B8AC844E
:101B08009E9813AA02D0AB8600D013AC02D09D8A4F
:101B180001D09D9A9E9A13AE02D09D8801D09D98BF
:101B280011C0AFFF1250B06EAC8AAB8E949C948EED
:101B3800ACB8ACBE02D0948C00D01200A262E222F3
:101B480002C2E0A8906898B030187A10385A424A11
:101B58005230303A30303A30300030303A30303A63
:101B680030300030312F30312F30300030303A30C3
:101B7800303A30300030373546004F4646003000A6
:101B880030302F30302F30300030303A30303A306B
:101B980030003030303000303030004F4646002BB7
:101BA8003235002B37370000680E136E000E146EA6
:101BB800000E626E000E5F6E120E5E6E010E5B6EA0
:101BC800010E5A6E050E606E210E6C6E3BEC11F024
:101BD80013501324AEEC0FF01450AEEC0FF062501B
:101BE800AEEC0FF05F50AEEC0FF05E50AEEC0FF0C5
:101BF8005B50AEEC0FF05A50AEEC0FF06050AEEC0C
:101C08000FF06C50AEEC0FF032EC11F01200680ED1
:101C1800156E000E146E3BEC11F015501524AEEC49
:101C28000FF01450AEEC0FF0EDEC10F0D880153436
:101C3800AEEC0FF0010E2DEC0FF0626E010E2DECE4
:101C48000FF05F6E010E2DEC0FF05E6E010E2DECA5
:101C58000FF05B6E010E2DEC0FF05A6E010E2DEC9D
:101C68000FF0606E000E2DEC0FF06C6E32EC11F080
:101C78001200000E176E000E166E13501410D8B412
:101C880021D0010E156E05D0D89013361436152ABA
:101C980000D014BE02D0F8D700D0D8901636173628
:101CA8001350115C14501258D8A006D01350115E6E
:101CB8001450125A168000D0D89014321332152EB0
:101CC800ECD700D016C011F017C012F0120017C0E0
:101CD80011F018C012F0000E146E7D0E136E31EC68
:101CE80010F011C01BF012C01CF01BC019F01CC072
:101CF8001AF0191E1A1E194A1A2AFF0E19241B6EE9
:101D0800FF0E1A201C6E030ED56E1BC0D6FF1C508A
:101D1800D76EF294D58E00D0F2A4FED7D59E1200CD
:101D2800176E2A0E55EC11F0000E4DEC11F01750FD
:101D380059244DEC11F0000E4DEC11F015505924BA
:101D48004DEC11F02B0E55EC11F0000E4DEC11F08E
:101D5800145061244DEC11F0000E4DEC11F01650AA
:101D680061244DEC11F02C0E55EC11F012000CEC26
:101D780011F0700ED36E0F0EC16E000E926E010E32
:101D8800936E010E946E000E956E000E966EF19E87
:101D9800000EB26E030EB16EA00E116E860E126E9C
:101DA800010E136E000E146E77EC11F09CEC10F01F
:101DB800E1EC10F0000E506E809A12001A501B10C1
:101DC800D8B41DD0010E1C6E05D0D8901A361B361B
:101DD8001C2A00D01BBE02D0F8D700D01A50185CBD
:101DE8001B501958D8A005D01A50185E1B50195A04
:101DF80000D0D8901B321A321C2EF0D700D018C051
:101E080018F019C019F012002B6E2BC02CF02D6A97
:101E18000ED023C018F025C019F026C01AF027C02C
:101E28001BF02C5067EC0CF02C4A2D2A00D02450C3
:101E38002BC028F0296A2826000E292228502C5C5D
:101E48002D50800A2A6E2950800A2A58D8A0E1D736
:101E58001200116E92EC11F0000E126E070E126451
:101E680001D00FD06BEC11F083AE03D0D8801336BD
:101E780004D013501324136E00D08EEC11F0122AE4
:101E8800EDD71150D8B403D044EC11F003D07CEC5A
:101E980011F000D0135000D01200B2CF17F0186A1A
:101EA800000E1A6E020E196E1CEC0CF017C021F011
:101EB80018C022F0000EB26E21C011F022C012F03C
:101EC800000E146E3C0E136E31EC10F011C01FF0B2
:101ED80012C020F000D0120011C015F012C016F088
:101EE80003D0154A162A00D015C0D9FF16C0DAFF4C
:101EF800DF50D8A4F6D711C013F012C014F0131E87
:101F0800141E134A142A15501324116E1650142047
:101F1800126E00D012002A0E55EC11F0000E4DEC96
:101F280011F0000E4DEC11F0000E4DEC11F07F0E8B
:101F38004DEC11F02B0E55EC11F0000E4DEC11F09C
:101F4800000E4DEC11F0000E4DEC11F09F0E4DEC13
:101F580011F01200116E000E126E070E126401D0FD
:101F680011D011AE03D092EC11F003D081EC11F036
:101F780000D06BEC11F08EEC11F011501124116EA1
:101F8800122AEBD792EC11F06BEC11F08EEC11F0F9
:101F98001200480E186EAA0E166E3BEC11F018507F
:101FA8001824AEEC0FF01650AEEC0FF0EDEC10F07C
:101FB800D8801834AEEC0FF0000E2DEC0FF0176E31
:101FC80032EC11F017C014F0156A00D0120011C0DD
:101FD80015F012C016F005D0154A162A134A142A0D
:101FE80000D013C0F6FF14C0F7FF15C0D9FF16C004
:101FF800DAFF0800F5CFDFFFDF50D8A4EDD71200D5
:102008001B6E800E1B6013D09F0E186401D00FD07A
:1020180018C014F01B28156E1828166E1B5094EC67
:102028000EF01A504DEC11F019504DEC11F0120051
:1020380083888396800EC76E300EC66E89EC08F0D2
:102048008FEC0FF08DEC09F0360E55EC11F0C00E48
:102058004DEC11F0010E536E120011501302F3CF24
:1020680015F0F4CF16F011501402F3501626125042
:102078001302F350162615C011F016C012F000D046
:1020880012001C6E1C50116E126A136A8E0E146EAA
:10209800000E156E58EC0BF011C019F012C01AF0B2
:1020A80013C01BF000D01200000E126E000E116E4D
:1020B80012BE08D0680E115C420E1258D8B005D076
:1020C80001D003D0114A122AF3D71200136E000E62
:1020D800126E3A0E136006D02F0E136403D0010E51
:1020E800126E00D012C011F0113000D0120020453D
:1020F8004345333330314C205370273231204C3133
:102108003200000000000000000000000000000095
:10211800156E3BEC11F015501524AEEC0FF0135072
:10212800AEEC0FF01450AEEC0FF032EC11F01200E0
:10213800480E166EAC0E136E020E146E16508CEC12
:1021480010F0EE0E136E1650D4EC10F01200000EC4
:10215800186E800E196EA00E1A6E24C01BF025C0D2
:102168001CF0000EEAEC0AF01200000E5C6E03D0C0
:1021780016EC11F007D05C50FB0F5C6E5C50BBECAA
:102188000BF000D01200640E5C6E16EC11F007D054
:102198005C50050F5C6E5C50BBEC0BF000D012007D
:1021A800146E3BEC11F014501424AEEC0FF01350E5
:1021B800AEEC0FF032EC11F01200F292F19CF288C2
:1021C800000ECF6E000ECE6E9E909D80F28CF28E29
:1021D80012008EEC11F092EC11F06BEC11F081EC26
:1021E80011F08EEC11F01200000E506E03D064EC6A
:1021F80011F003D086EC11F000D01200126E9E96FA
:10220800C9CF11F012C0C9FF00D0C7A0FED7120075
:10221800000E126E190E116E3C0E6AEC0DF0700E67
:10222800D36E120029EC11F058EC10F08AEC11F082
:102238005C50BBEC0BF01200839A000E186E640E13
:10224800176E6BEC0EF0838A1200F90ECB6E050E3A
:10225800CA6E4A0EBB6E3C0EBA6E12008EEC11F0BE
:1022680081EC11F06BEC11F092EC11F0120092EC91
:1022780011F06BEC11F081EC11F08EEC11F0120002
:1022880081EC11F06BEC11F08EEC11F092EC11F086
:102298001200136E83988386135002EC11F0838822
:1022A8001200136E83988396135002EC11F0838802
:1022B8001200116E00D0ACA2FED711C0ADFF120003
:1022C800010E506E5C50BBEC0BF0808A1200958CAE
:1022D800060EE82EFED700D01200000E526EF19CBA
:1022E800CD909E9012006BEC11F092EC11F0120060
:1022F8006BEC11F08EEC11F01200839E959E00D0CD
:1023080000D01200000E506E809A1200000EBA6EB5
:1023180081961200839C959C00D01200958E00D067
:1023280000D01200000E526ECD9012004BFF01003B
:10FD0C0000000000000000005F000000070007007A
:10FD1C00147F147F14242A7F2A122313086462365A
:10FD2C00495620500008070300001C2241000041E6
:10FD3C00221C002A1C7F1C2A08083E080800807020
:10FD4C003000080808080800006060002010080453
:10FD5C00023E5149453E00427F40007249494946A6
:10FD6C002141494D331814127F1027454545393C24
:10FD7C004A49493141211109073649494936464911
:10FD8C0049291E0000140000004034000000081433
:10FD9C0022411414141414004122140802015909AC
:10FDAC00063E415D594E7C1211127C7F4949493601
:10FDBC003E414141227F4141413E7F494949417F7A
:10FDCC00090909013E414151737F0808087F004130
:10FDDC007F41002040413F017F081422417F404079
:10FDEC0040407F021C027F7F0408107F3E4141414E
:10FDFC003E7F090909063E4151215E7F09192946BA
:10FE0C00264949493203017F01033F4040403F1FCF
:10FE1C002040201F3F4038403F6314081463030404
:10FE2C007804036159494D43007F41414102040864
:10FE3C001020004141417F04020102044040404037
:10FE4C0040000307080020545478407F284444386D
:10FE5C003844444428384444287F385454541800B7
:10FE6C00087E090218A4A49C787F08040478004436
:10FE7C007D40002040403D007F1028440000417F21
:10FE8C0040007C047804787C0804047838444444AA
:10FE9C0038FC1824241818242418FC7C08040408A2
:10FEAC00485454542404043F44243C4040207C1CBB
:10FEBC002040201C3C4030403C44281028444C90AE
:10FECC0090907C4464544C44000836410000007708
:10FEDC0000000041360800020102040201000A0081
:10FEEC006400E80310270100100000010010253009
:10FEFC0032783A253032783A253032782025303233
:10FF0C00782F253032782F253032780043616E6E91
:10FF1C006F742066696E6420627574746F6E200D48
:10FF2C000A000A2046616E206973207475726E6532
:10FF3C0064206F66662E0A00454345333330314CDE
:10FF4C0020537072696E672032312D5333000A20B2
:10FF5C0046616E206973207475726E6564206F6ED5
:10FF6C002E0A002054656D70203D2025642043200E
:10FF7C003D2025642046200052504D203D20256414
:10FF8C0020206463203D2025640D0A00303132337B
:10FF9C00343536373839616263646566004E4543E3
:10FFAC005F436F6465203D2025780D0A00627574EF
:10FFBC00746F6E203D202564200D0A0054656D7011
:10FFCC00657261747572653A0068656C6C6F0D0AC8
:10FFDC0000202046414E0054696D650044617465F3
:10FFEC00004F4E20004F46460052504D00432F000C
:04FFFC00444300007A
:020000040020DA
:08000000FFFFFFFFFFFFFFFF00
:020000040030CA
:0E000000FF08191EFF8281FF0FC00FE00F40A6
:00000001FF
