:040000000CEF00F011
:10000800FACF03F0FBCF04F0E9CF05F039ED08F0A3
:10001800B9EF07F0200E316E000E326E3DD1250E7D
:100028003618D8B404D0365081EC0AF035D1000E19
:10003800356E000E346E000E336E05D033841E4AC2
:100048001F2A01D00BD01EC0F6FF1FC0F7FF080003
:10005800F550300AD8B4F2D701D0F5D71EC0F6FF54
:100068001FC0F7FF0800F55021EC0AF0D8A03BD0DC
:10007800000E356E000E346E00D034C011F035C05D
:1000880012F0000E146E0A0E136EFBEC09F011C08C
:1000980034F012C035F0D00E266EFF0E276E1EC04B
:1000A800F6FF1FC0F7FF0800F550286E296A265092
:1000B80028262750292228503426295035221E4A1E
:1000C8001F2A1EC0F6FF1FC0F7FF0800F55021ECDD
:1000D8000AF0D8A008D0D1D706D0ECD0338803D006
:1000E80015D0DAD013D01EC0F6FF1FC0F7FF1E4A86
:1000F8001F2A0800F5CF36F03650000AD8B4DAD0F7
:100108006C0AD8B4EBD7140AD8A4C6D033A80ED03A
:1001180031C0D9FF32C0DAFFDECF2DF0DECF2EF0AE
:10012800DECF2FF0DECF30F0040E0FD031C0D9FF74
:1001380032C0DAFFDECF26F0DDCF27F026C02DF063
:1001480027C02EF02F6A306A020E3126000E3222A6
:1001580000D0010E366E080E3618D8B41CD001D067
:100168001AD03650040D9A0EF324F66EFF0EF420C2
:10017800F76E0900F5502D5C0900F5502E5809005E
:10018800F5502F580900F5503058D8A004D001D0A8
:1001980002D0362AE0D7800E36BE7F0E266E345047
:1001A800365C3550800A2658D8B007D03650345EB1
:1001B800000E36BEFF0E355A05D0000E356E000E05
:1001C800346E00D033A410D034503510D8B41CD0BD
:1001D800300E81EC0AF03406D8A0350634503510BC
:1001E800D8B412D0F5D710D034503510D8B40CD0BC
:1001F800200E81EC0AF03406D8A0350634503510AC
:10020800D8B402D0F5D700D036502B6E2C6A2BBE4E
:100218002C0638D02DC011F02EC012F02FC013F0CC
:1002280030C014F02BC026F02CC027F0D89026360A
:100238002736D890263627369A0E2624F66EFF0ED5
:100248002720F76E0900F5CF15F00900F5CF16F055
:100258000900F5CF17F00A00F5CF18F02FEC07F0DA
:1002680011500F0B2A6E2A50010DE60EF324F66E7C
:10027800FF0EF420F76E0800F5CF36F0365081EC0B
:100288000AF000D02B06D8A02C062B28C3E12C2876
:10029800D8B402D0BFD700D01EC0F6FF1FC0F7FFEA
:1002A8001E4A1F2A0800F5CF36F03650D8B402D0BF
:1002B800B6D600D0120020C024F021C025F0241E9C
:1002C800251E244A252A010E24242A6E000E2520E4
:1002D8002B6E000E276E010E266E20C024F021C062
:1002E80025F0D89024362536241E251E244A252A92
:1002F80024C028F025C029F0000E2D6E000E2C6EAB
:1003080020C02EF021C02FF01E502024186E22C0CD
:1003180019F023C01AF01C50CEEC09F02050000848
:100328001E24186E22C019F023C01AF01C50CEECFF
:1003380009F01EC018F022C019F023C01AF01C5092
:100348002024CEEC09F01EC018F022C019F023C0FA
:100358001AF0205000081C24CEEC09F078D02BBEEF
:100368000BD02E06D8A02F06020E2826000E292212
:1003780028502A2629502B222C4A2D2A020E2626BE
:10038800000E272226502A2627502B221E502E24C4
:10039800186E22C019F023C01AF01C502C24CEEC81
:1003A80009F01E502E24186E22C019F023C01AF02E
:1003B8002C5000081C24CEEC09F02E5000081E24F6
:1003C800186E22C019F023C01AF01C502C24CEEC51
:1003D80009F02E5000081E24186E22C019F023C000
:1003E8001AF02C5000081C24CEEC09F01E502C24C6
:1003F800186E22C019F023C01AF01C502E24CEEC1F
:1004080009F01E502C24186E22C019F023C01AF0CF
:100418002E5000081C24CEEC09F02C5000081E2495
:10042800186E22C019F023C01AF01C502E24CEECEE
:1004380009F02C5000081E24186E22C019F023C0A1
:100448001AF02E5000081C24CEEC09F000D02E50D3
:100458002C5C2D50800A246E2F50800A2458D8A076
:100468007ED712004BEC0AF0700ED36EF19E010E8F
:10047800936E000E946E000E956E000E966E0F0E23
:10048800C16EE8EC06F0F292F19CF288000ECF6E95
:10049800000ECE6E9E909D80F28CF28E000E666EDF
:1004A800000E656E000E5D6E000E5E6E000E5F6ED5
:1004B800000E606E00D065046610D8A4FCD7000E4C
:1004C800666E000E656E5EC069F0BA0E1E6EFF0E97
:1004D8001F6E5DC020F05EC021F05FC022F060C0DA
:1004E80023F069C024F0256A0EEC00F0F288F19C34
:1004F8004668000E456E000E446E45BE08D0455055
:1005080017E1150E445CD8B013D001D011D0470EB6
:100518004424D96E000E4520DA6E6950DE18D8A43E
:1005280003D044C046F000D0444A452AE6D700D05C
:100538004628D8B4C0D74650020DAA0EF324D96E67
:10054800000EF420DA6EDF50846E4650020D000E65
:10055800F324D96E010EF420DA6EDF50836E000E9C
:100568003C6E3C0E3B6E000E3E6E500E3D6E000E15
:10057800406E140E3F6E4650020D800EF324D96E65
:10058800000EF420DA6EDECF41F0DDCF42F0D9EC78
:1005980008F0000E1D6E3C0E1C6E000E1F6E500EF5
:1005A8001E6E000E216E140E206EFF0E236E226842
:1005B8005FEC01F04D0E396E4650040D2A0EF324FF
:1005C8003A6E010EF4203B6EFF0E3D6E3C68000E45
:1005D8003F6E000E3E6E010E406E340E7CEC05F050
:1005E80068EC0AF00FEC0AF08EEC0AF064D70CEF16
:1005F80000F0F2926A50D8B49AD0CE50CFCF01F022
:10060800026A01C002F0016A0110616E0250626E56
:10061800000ECF6E000ECE6E8AD0000ECF6E000E8A
:10062800CE6E9E90900ECD6ECD80000E6C6E000E3C
:100638005D6E000E5E6E000E5F6E000E606E010E47
:100648006A6E73D085D01C0E615C250E6258D8B0D6
:1006580009D0350E615C210E6258D8A003D0020E75
:100668006A6E2AD092EC0AF027D026D071D0880E74
:10067800615C130E6258D8B009D0A10E615C0F0EF0
:100688006258D8A003D0030E6A6E4FD092EC0AF0DD
:100698004CD04BD05DD0BC0E615C020E6258D8B015
:1006A80008D0910E615C010E6258D8A002D0040EE9
:1006B800D7D792EC0AF000D0F19C4AD0080E615CC2
:1006C800070E6258D8B02ED0910E615C010E6258A8
:1006D800D8A028D0D8905D345D6E5E345E6E5F34ED
:1006E8005F6E6034606EE90E615C030E6258D8A0DC
:1006F8000CD0010E5D245D6E000E5E205E6E000E55
:100708005F205F6E000E6020606E6C286C6E1F0E9E
:100718006C64B9D7000E666E010E656EF298000E15
:100728006A6EB1D792EC0AF000D0F18C11D06A5001
:10073800000AD8B472D7010AD8B485D7030AD8B446
:1007480096D7010AD8B4A7D7070AD8B4B7D700D024
:100758001200366E800E3660A6D09F0E2E6401D031
:10076800A2D03450D8A403D0010E346E00D01F0E8E
:100778002F6404D07E0E2F6403D000D03F0E2F6E5E
:10078800000E386E040E386401D08DD0530E2F60E1
:1007980015D0E00E2F24116E126AFF0E1222000EE1
:1007A800146E050E136EFBEC09F038501126000E7E
:1007B8001222BF0E1124F66EFD0E14D0AD0E2F249A
:1007C800116E126AFF0E1222000E146E050E136EC1
:1007D800FBEC09F038501126000E1222BE0E11242F
:1007E800F66EFE0E1220F76E0800F5CF35F000D039
:1007F800000E376E060E376401D053D035A023D0D3
:100808003404D8A40CD02E503724186E30C019F0F8
:1008180031C01AF036503824CEEC09F03ED03750AB
:100828003402F3502E24236E34C024F034C025F053
:1008380030C026F031C027F038503402F350362447
:1008480052EC09F02AD03050321804E131503318F4
:10085800D8B423D03404D8A40CD02E503724186E22
:1008680032C019F033C01AF036503824CEEC09F0F3
:1008780014D037503402F3502E24236E34C024F0A1
:1008880034C025F032C026F033C027F03850340287
:10089800F350362452EC09F000D0372AD89035327C
:1008A800A9D7382A6FD7120027C02FF028C030F0F8
:1008B8002F1E301E2F4A302A010E2F24356E000EAF
:1008C8003020366E000E326E010E316E27C02FF0CA
:1008D80028C030F0D8902F3630362F1E301E2F4AC1
:1008E800302A2FC033F030C034F0000E386E000EBE
:1008F800376E27C039F028C03AF067D036BE0BD023
:100908003906D8A03A06020E3326000E3422335098
:10091800352634503622374A382A020E3126000E40
:100928003222315035263250362229A025D039506E
:1009380000082524186E395039242B242F6E2F28AF
:10094800196E2DC01AF02EC01BF02350372475ECF9
:1009580007F0375000082524186E375037242B2409
:100968002F6E2F28196E2DC01AF02EC01BF02350A1
:10097800392475EC07F000D029A227D03950000897
:100988002524186E395039242B242F6E2F28196EE0
:100998002DC01AF02EC01BF037500008232475EC28
:1009A80007F0375000082524186E375037242B24B9
:1009B8002F6E2F28196E2DC01AF02EC01BF039503B
:1009C8000008232475EC07F000D03950375C385004
:1009D800800A2F6E3A50800A2F58D8A08FD712005D
:1009E800010E79EC0AF0000E186E960E176E02ECE6
:1009F80009F0110E79EC0AF0010E186EF40E176E5C
:100A080002EC09F0B10E79EC0AF0010E71EC0AF073
:100A18002C0E71EC0AF02D0E71EC0AF0B20E79EC86
:100A28000AF0010E71EC0AF02C0E71EC0AF02D0E92
:100A380071EC0AF0B30E79EC0AF0010E71EC0AF0D1
:100A48002C0E71EC0AF02D0E71EC0AF0010E71EC0F
:100A58000AF02C0E71EC0AF02D0E71EC0AF0B40EAF
:100A680079EC0AF0070E71EC0AF0C00E79EC0AF086
:100A7800A20E71EC0AF0020E71EC0AF0840E71EC11
:100A88000AF0C10E79EC0AF0C50E71EC0AF0C20E3C
:100A980079EC0AF00A0E71EC0AF0000E71EC0AF01B
:100AA800C30E79EC0AF08A0E71EC0AF02A0E71EC8A
:100AB8000AF0C40E79EC0AF08A0E71EC0AF0EE0E18
:100AC80071EC0AF0C50E79EC0AF00E0E71EC0AF022
:100AD800200E79EC0AF0360E79EC0AF0C80E71ECAB
:100AE8000AF03A0E79EC0AF0050E71EC0AF01200E1
:100AF8000001F36FF3C0F9F039C0F8F03AC011F013
:100B08003BC012F077EC09F011C0F4F012C0F5F018
:100B1800000E0001F76F000EF66F64D05C50D8B479
:100B280034D04050050D0001F951416E426AF3502E
:100B38004126F450422242BE28D0425004E1810EA0
:100B4800415CD8A022D0000E0001F96F4050070D7B
:100B5800F3500001F825030F0001F86FA00E000103
:100B6800F86504D0A00E0001F86F00D00001F6511E
:100B78003A24D96E0001F7513B20DA6E200EDE18B8
:100B8800D8B42CD002D02AD000D0F8C02EF0000162
:100B9800F6513A24D96E0001F7513B20DA6EDF5046
:100BA8002F6E3CC030F03DC031F03EC032F03FC047
:100BB80033F040C034F00001F951ADEC03F040507F
:100BC800060DF3500001F9250001F96F800E0001B0
:100BD800F96504D0800E0001F96F00D00001F64BD2
:100BE800F72B00D00001F4510001F65D0001F5512A
:100BF8000001F759D8A092D71200E00E79EC0AF05C
:100C0800020E71EC0AF01C0E71EC0AF0070E71EC82
:100C18000AF0120E71EC0AF0370E71EC0AF0320E7F
:100C280071EC0AF0290E71EC0AF02D0E71EC0AF045
:100C3800290E71EC0AF0250E71EC0AF02B0E71ECFE
:100C48000AF0390E71EC0AF0000E71EC0AF0010E90
:100C580071EC0AF0030E71EC0AF0100E71EC0AF058
:100C6800E10E79EC0AF0030E71EC0AF01D0E71EC3E
:100C78000AF0070E71EC0AF0060E71EC0AF02E0E5F
:100C880071EC0AF02C0E71EC0AF0290E71EC0AF0E6
:100C98002D0E71EC0AF02E0E71EC0AF02E0E71EC8E
:100CA8000AF0370E71EC0AF03F0E71EC0AF0000EF4
:100CB80071EC0AF0000E71EC0AF0020E71EC0AF009
:100CC800100E71EC0AF0130E79EC0AF0000E186E93
:100CD8000A0E176E02EC09F0290E79EC0AF0000EE4
:100CE800186E640E176E02EC09F01200236E800E67
:100CF800236069D09F0E186401D065D0FF0E1D6E69
:100D0800FF0E1E6E195023C01FF0206A1F26000E0A
:100D180020221D501F261E50202220BE0AD02050FF
:100D280004E1800E1F5CD8A004D023500008800F77
:100D3800196EFF0E1D6EFF0E1E6E1A5018C01FF0A2
:100D4800206A1F26000E20221D501F261E5020221A
:100D580020BE0BD0205004E1A00E1F5CD8A005D007
:100D680018500008A00F1A6E00D018C014F02350B5
:100D780019241D6E1D04156E18501A241E6E1E04AB
:100D8800166E23502BEC09F01C50216E1BC022F06C
:100D9800828082921AC018F01850D8B413D001D0AB
:100DA80011D019C023F02350D8B40AD001D008D0EC
:100DB800215055EC0AF0225055EC0AF02306F3D7DF
:100DC8001806EAD7828212005FEC0AF0E6EC09F016
:100DD800000E256E000E246E32EC0AF0D40E676EFB
:100DE800000E686E67C011F068C012F0D00E136E66
:100DF800FF0E146EB5EC09F0020E396E67C03AF0BA
:100E080068C03BF0FF0E3D6E3C68000E3F6E000E62
:100E18003E6E010E406E020E7CEC05F067C011F0CC
:100E280068C012F0F70E136EFF0E146EB5EC09F0E1
:100E38000A0E396E67C03AF068C03BF0FF0E3D6E8F
:100E48003C68000E3F6E000E3E6E010E406E320E84
:100E58007CEC05F01200000E196E000E1A6E000EE2
:100E68001B6E000E1C6E1550161017101810D8B4F3
:100E78002FD0010E1D6E07D0D890153616361736AE
:100E880018361D2A00D018BE02D0F6D700D0D89048
:100E980019361A361B361C361550115C1650125866
:100EA8001750135818501458D8A00AD01550115E6E
:100EB8001650125A1750135A1850145A198000D045
:100EC800D89018321732163215321D2EE0D700D0BE
:100ED80019C011F01AC012F01BC013F01CC014F096
:100EE8001200226E800E22603FD09F0E186401D03F
:100EF8003BD0FF0E1C6EFF0E1D6E195018C01EF061
:100F08001F6A1E26000E1F221C501E261D501F225F
:100F18001FBE0BD01F5004E1A00E1E5CD8A005D048
:100F280018500008A00F196E00D01B50206E1AC070
:100F380021F018C014F022C015F0185019241C6EA6
:100F48001C04166E22502BEC09F08280829207D086
:100F5800205055EC0AF0215055EC0AF000D0190643
:100F68001928D8A4F5D78282120000EED4F01F0EFB
:100F7800EE6AE806FDE100EE5DF0130EEE6AE806A3
:100F8800FDE1F40EF66E0F0EF76E000EF86E01EE30
:100F980000F010EE7EF00900F5CFEEFFE550E150CD
:100FA800FAE15E0EF66E110EF76E000EF86E00EEA8
:100FB80080F010EE54F00900F5CFEEFFE550E15057
:100FC800FAE1800EF66E140EF76E000EF86E00EE63
:100FD80047F010EE16F00900F5CFEEFFE550E150AE
:100FE800FAE1000EF86E000136EF02F00000000092
:100FF80000000000000000000000A000A000E000C9
:10100800E000E000E000E00007000700070007003C
:1010180007000700070043482D00434820004348C5
:101028002B007C3C3C003E3E7C003E7C7C00202D1E
:101038002000202B20004551200020302000313096
:1010480030003230300020312000203220002033A0
:1010580020002034200020352000203620002037B2
:10106800200020382000203920000600EACF06F0B2
:10107800E1CF07F0E2CF08F0D9CF09F0DACF0AF0D4
:10108800F3CF0BF0F4CF0CF0F6CF0DF0F7CF0EF056
:10109800F8CF0FF0F5CF10F09EA003D088EC0AF03F
:1010A80000D0F2A203D0FDEC02F000D010C0F5FF92
:1010B8000FC0F8FF0EC0F7FF0DC0F6FF0CC0F4FF1D
:1010C8000BC0F3FF0AC0DAFF09C0D9FF08C0E2FF6E
:1010D80007C0E1FF06C0EAFF05C0E9FF04C0FBFF47
:1010E80003C0FAFF1100136E000EAC6E000EAB6E5B
:1010F80013A002D0AC8800D013A203D0AC8CAB8C68
:1011080000D013A402D0AC8E00D013A602D0AB88B6
:1011180002D0AB8A00D013B8AC849E9813AA02D030
:10112800AB8600D013AC02D09D8A01D09D9A9E9ABE
:1011380013AE02D09D8801D09D9811C0AFFF125008
:10114800B06EAC8AAB8E949C948EACB8ACBE02D018
:10115800948C00D0120000F800F800F81F001F005F
:10116800E0071FF81FF81FF800000000000000004B
:101178000000000000000000000000000000000067
:101188000100010001000400040002000500000045
:101198000000000000000000000000000000000047
:1011A800000000000000000000003F5000083D243F
:1011B800186ED8803F34196E41C01AF042C01BF037
:1011C8003B5075EC07F03BC023F03CC024F03DC019
:1011D80025F03EC026F03FC027F040C028F0000EA2
:1011E8002A6E030E296E000E2C6E000E2B6E41C067
:1011F8002DF042C02EF058EC04F0120017C011F088
:1012080018C012F0000E146EFA0E136EFBEC09F003
:1012180011C01BF012C01CF01BC019F01CC01AF042
:10122800191E1A1E194A1A2AFF0E19241B6EFF0EC0
:101238001A201C6EB80EB16E1BC0B2FF1C50B36EE4
:10124800A192B18000D0A1A2FED7B1901200176E72
:101258002A0E79EC0AF0000E71EC0AF017506D2492
:1012680071EC0AF0000E71EC0AF015506D2471EC67
:101278000AF02B0E79EC0AF0000E71EC0AF014500B
:101288006F2471EC0AF0000E71EC0AF016506F240E
:1012980071EC0AF02C0E79EC0AF012002B6E2BC0C0
:1012A8002CF02D6A0ED023C018F025C019F026C0E6
:1012B8001AF027C01BF02C5075EC07F02C4A2D2A89
:1012C80000D024502BC028F0296A2826000E292295
:1012D80028502C5C2D50800A2A6E2950800A2A58E2
:1012E800D8A0E1D7120011C015F012C016F003D033
:1012F800154A162A00D015C0D9FF16C0DAFFDF50EC
:10130800D8A4F6D711C013F012C014F0131E141E7F
:10131800134A142A15501324116E16501420126EF5
:1013280000D012002A0E79EC0AF0000E71EC0AF0D7
:10133800000E71EC0AF0000E71EC0AF07F0E71ECF1
:101348000AF02B0E79EC0AF0000E71EC0AF0000E90
:1013580071EC0AF0000E71EC0AF09F0E71EC0AF0C5
:10136800120011C015F012C016F005D0154A162A41
:10137800134A142A00D013C0F6FF14C0F7FF15C093
:10138800D9FF16C0DAFF0800F5CFDFFFDF50D8A479
:10139800EDD712001B6E800E1B6013D09F0E1864D1
:1013A80001D00FD018C014F01B28156E1828166E1F
:1013B8001B502BEC09F01A5071EC0AF0195071EC23
:1013C8000AF0120082828290800EC76E300EC66EBE
:1013D800F4EC04F096EC09F001EC06F0360E79EC2A
:1013E8000AF0C00E71EC0AF0010E6B6E120011507B
:1013F8001302F3CF15F0F4CF16F011501402F35086
:10140800162612501302F350162615C011F016C0F6
:1014180012F000D01200000E126E000E116E12BEF5
:1014280008D0680E115C420E1258D8B005D001D011
:1014380003D0114A122AF3D71200136E000E126E4F
:101448003A0E136006D02F0E136403D0010E126EED
:1014580000D012C011F0113000D01200000E186E2A
:10146800800E196EA00E1A6E24C01BF025C01CF049
:10147800000E7AEC06F01200A262E22202C2E0A894
:10148800906898B030187A10385A424A5201000EC3
:10149800126E190E116E3C0E77EC08F0600ED36ECA
:1014A8001200126E9E96C9CF11F012C0C9FF00D06B
:1014B800C7A0FED712008294000E186E640E176E35
:1014C80002EC09F082841200F90ECB6E050ECA6E8A
:1014D8004A0EBB6E3C0EBA6E1200136E8292828068
:1014E800135055EC0AF082821200136E8292829099
:1014F800135055EC0AF082821200116E00D0ACA293
:10150800FED711C0ADFF1200000E6A6EF19CCD909F
:101518009E901200000EBA6E81961200000E6A6E3E
:04152800CD90120050
:10FDBE0000000000000000005F00000007000700C8
:10FDCE00147F147F14242A7F2A12231308646236A8
:10FDDE00495620500008070300001C224100004134
:10FDEE00221C002A1C7F1C2A08083E08080080706E
:10FDFE0030000808080808000060600020100804A1
:10FE0E00023E5149453E00427F40007249494946F3
:10FE1E002141494D331814127F1027454545393C71
:10FE2E004A4949314121110907364949493646495E
:10FE3E0049291E0000140000004034000000081480
:10FE4E0022411414141414004122140802015909F9
:10FE5E00063E415D594E7C1211127C7F494949364E
:10FE6E003E414141227F4141413E7F494949417FC7
:10FE7E00090909013E414151737F0808087F00417D
:10FE8E007F41002040413F017F081422417F4040C6
:10FE9E0040407F021C027F7F0408107F3E4141419B
:10FEAE003E7F090909063E4151215E7F0919294607
:10FEBE00264949493203017F01033F4040403F1F1D
:10FECE002040201F3F4038403F6314081463030452
:10FEDE007804036159494D43007F414141020408B2
:10FEEE001020004141417F04020102044040404085
:10FEFE0040000307080020545478407F28444438BB
:10FF0E003844444428384444287F38545454180004
:10FF1E00087E090218A4A49C787F08040478004483
:10FF2E007D40002040403D007F1028440000417F6E
:10FF3E0040007C047804787C0804047838444444F7
:10FF4E0038FC1824241818242418FC7C08040408EF
:10FF5E00485454542404043F44243C4040207C1C08
:10FF6E002040201C3C4030403C44281028444C90FB
:10FF7E0090907C4464544C44000836410000007755
:10FF8E0000000041360800020102040201000000D8
:10FF9E001000000000010000001000000000010031
:10FFAE000000100000000001000000104E45435FED
:10FFBE00436F6465203D202530386C782025780D00
:10FFCE000A00454345333330314C20537072696E0D
:10FFDE00672032312D5333003031323334353637DA
:10FFEE003839616263646566004C414220313020CD
:02FFFE00000001
:020000040020DA
:08000000FFFFFFFFFFFFFFFF00
:020000040030CA
:0E000000FF08191EFF8281FF0FC00FE00F40A6
:00000001FF
