:040000000CEF00F011
:10000800FACF03F0FBCF04F0E9CF05F069ED0BF070
:04001800F9EF0CF000
:101000000001000A006400E803102701001000003E
:101010000100102054656D706572617475726520F1
:101020003D202564206465677265657343203D201B
:1010300025642064656772656573460D0A00253076
:1010400032783A253032783A2530327820253032DD
:10105000782F253032782F253032780030313233F6
:1010600034353637383961626364656600001F0EB7
:10107000306E000E316E99D1250E3818D8B404D0D8
:101080003850E1EC0DF091D1000E376E000E366E47
:10109000000E356E05D035841D4A1E2A01D00BD0B6
:1010A0001DC0F6FF1EC0F7FF0800F550300AD8B487
:1010B000F2D701D0F5D71DC0F6FF1EC0F7FF08001C
:1010C000F55054EC0DF0D8A03BD0000E376E000E5A
:1010D000366E00D036C011F037C012F0000E146E1C
:1010E0000A0E136E2EEC0DF011C036F012C037F060
:1010F000D00E2B6EFF0E2C6E1DC0F6FF1EC0F7FF2C
:101100000800F5502D6E2E6A2B502D262C502E22C5
:101110002D5036262E5037221D4A1E2A1DC0F6FF9E
:101120001EC0F7FF0800F55054EC0DF0D8A008D011
:10113000D1D706D048D11BD0358E19D036D117D093
:101140001DC0F6FF1EC0F7FF1D4A1E2A0800F5CF7E
:1011500038F03850000AD8B436D1640AD8B407D071
:101160000D0AD8B404D0110AD8B4E6D71ED135BEC2
:1011700015D030C0D9FF31C0DAFFDECF33F0DDCF7C
:1011800034F0020E3026000E312234AE4ED0030E63
:101190003512336C341ED8B0342A47D030C0D9FF52
:1011A00031C0DAFFDECF33F0DDCF34F0020E30266F
:1011B000000E31223AD0010E386E050E3818D8B420
:1011C0003DD001D03BD03850020D010EF324F66E15
:1011D000100EF420F76E0900F550335C0900F5504D
:1011E0003458D8A02BD001D029D0382AE6D726D021
:1011F000010E386E040E3818D8B420D001D01ED09D
:101200003850020D0B0EF324F66E100EF420F76E1C
:101210000900F550335C0900F5503458D8A00ED0C1
:1012200001D00CD0382AE6D709D03550800B000AFF
:10123000D8B4C1D7800AD8B4DBD700D03650371025
:10124000D8B40AD035C02BF0030E2B16D8B404D076
:101250003606D8A0370600D0800E38BE7F0E2B6E23
:101260003650385C3750800A2B58D8B007D03850E9
:10127000365E000E38BEFF0E375A05D0000E376EB0
:10128000000E366E00D035A41AD035C02BF0030EF8
:101290002B16D8B404D02D0EE1EC0DF000D0365052
:1012A0003710D8B426D0300EE1EC0DF03606D8A0B9
:1012B000370636503710D8B41CD0F5D71AD0365070
:1012C0003710D8B40CD0200EE1EC0DF03606D8A0C3
:1012D000370636503710D8B402D0F5D700D035C015
:1012E0002BF0030E2B16D8B404D02D0EE1EC0DF02C
:1012F00000D038C032F053D045D03250020D010E2C
:10130000F324F66E100EF420F76E0900F5CF13F0FB
:101310000A00F5CF14F033C011F034C012F044ECE1
:101320000CF011C018F012C019F0000E1B6E0A0E5E
:101330001A6E72EC0CF01850300F386E2CD033C08F
:1013400011F034C012F03250020D0B0EF324F66E81
:10135000100EF420F76E0900F5CF13F00A00F5CF58
:1013600014F044EC0CF011500F0B2F6E2F50010DA8
:101370005C0EF324F66E100EF420F76E0800F5CF25
:1013800038F009D03550800B000AD8B4B6D7800A9F
:10139000D8B4D5D700D03850E1EC0DF000D03206EB
:1013A0003228D8B402D0EED700D01DC0F6FF1EC040
:1013B000F7FF1D4A1E2A0800F5CF38F03850D8B480
:1013C00002D05AD600D01200F2924250D8B49AD02D
:1013D000CE50CFCF01F0026A01C002F0016A0110C5
:1013E0003D6E02503E6E000ECF6E000ECE6E8AD065
:1013F000000ECF6E000ECE6E9E90900ECD6ECD8004
:10140000000E486E000E396E000E3A6E000E3B6EF6
:10141000000E3C6E010E426E73D085D01C0E3D5CFA
:10142000250E3E58D8B009D0350E3D5C210E3E58F1
:10143000D8A003D0020E426E2AD00FEC0EF027D0B7
:1014400026D071D0880E3D5C130E3E58D8B009D01E
:10145000A10E3D5C0F0E3E58D8A003D0030E426E85
:101460004FD00FEC0EF04CD04BD05DD0BC0E3D5C9D
:10147000020E3E58D8B008D0910E3D5C010E3E5889
:10148000D8A002D0040ED7D70FEC0EF000D0F19CFC
:101490004AD0080E3D5C070E3E58D8B02ED0910EB3
:1014A0003D5C010E3E58D8A028D0D8903934396E12
:1014B0003A343A6E3B343B6E3C343C6EE90E3D5C54
:1014C000030E3E58D8A00CD0010E3924396E000E00
:1014D0003A203A6E000E3B203B6E000E3C203C6EE4
:1014E0004828486E1F0E4864B9D7000E406E010EA2
:1014F0003F6EF298000E426EB1D70FEC0EF000D0A6
:10150000F18C11D04250000AD8B472D7010AD8B475
:1015100085D7030AD8B496D7010AD8B4A7D7070A43
:10152000D8B4B7D700D0120014EC0DF0DFEC0BF0FC
:1015300012EC0CF04F506F18D8B43DD04FC06FF084
:10154000DBEC0CF014500001836F00018351090D96
:10155000F3CF11F0F4CF12F0000E146E050E136EDF
:101560001EEC0BF01150200F0001816F3E0E1D6E1E
:10157000100E1E6E4BC01FF0206A4DC021F0226A73
:101580004FC023F0246A4EC025F0266A49C027F0D8
:10159000286A59C029F02A6A37EC08F0130E1D6E2C
:1015A000100E1E6E83C01FF0206A81C021F0226AD7
:1015B00037EC08F000D03F044010D8A4B9D7000E93
:1015C000406E000E3F6EDFEC0BF03AC041F0F28847
:1015D000F19C00018269000E0001856F000E846F8E
:1015E000000185BF0AD0000185511BE1150E0001E5
:1015F000845DD8B016D001D014D05A0E00018425D5
:10160000D96E000E00018521DA6E4150DE18D8A493
:1016100003D084C082F000D00001844B852BE0D73A
:1016200000D000018229D8B483D7D8EC0DF042EC69
:101630000DF003EC0EF07CD70CEF00F0000E166EF0
:1016400014AE07D0136C141ED8B0142A010E166EF7
:1016500000D012AE07D0116C121ED8B0122A010EA3
:10166000161A00D0000E186E000E176E13501410CC
:10167000D8B421D0010E156E05D0D890133614368B
:10168000152A00D014BE02D0F8D700D0D890173653
:1016900018361350115C14501258D8A006D01350AD
:1016A000115E1450125A178000D0D89014321332A1
:1016B000152EECD700D01650D8B405D0176C181ED4
:1016C000D8B0182A00D017C011F018C012F000D0FE
:1016D00012000600EACF06F0E1CF07F0E2CF08F0F3
:1016E000D9CF09F0DACF0AF0F3CF0BF0F4CF0CF03A
:1016F000F6CF0DF0F7CF0EF0F8CF0FF0F5CF10F0DA
:101700009EA003D0EEEC0DF000D0F2A203D0E4ECEA
:1017100009F000D010C0F5FF0FC0F8FF0EC0F7FFB2
:101720000DC0F6FF0CC0F4FF0BC0F3FF0AC0DAFFD8
:1017300009C0D9FF08C0E2FF07C0E1FF06C0EAFF09
:1017400005C0E9FF04C0FBFF03C0FAFF1100136EE0
:10175000000EAC6E000EAB6E13A002D0AC8800D0B1
:1017600013A203D0AC8CAB8C00D013A402D0AC8EEF
:1017700000D013A602D0AB8802D0AB8A00D013B839
:10178000AC849E9813AA02D0AB8600D013AC02D0D2
:101790009D8A01D09D9A9E9A13AE02D09D8801D059
:1017A0009D9811C0AFFF1250B06EAC8AAB8E949C66
:1017B000948EACB8ACBE02D0948C00D01200680EEF
:1017C000136E000E146E000E4F6E450E4D6E120E0F
:1017D0004B6E010E4A6E050E496E120E4E6E000ED5
:1017E000596EC6EC0DF013501324BCEC0CF01450E1
:1017F000BCEC0CF04F50BCEC0CF04D50BCEC0CF0C1
:101800004B50BCEC0CF04A50BCEC0CF04950BCEC1A
:101810000CF04E50BCEC0CF05950BCEC0CF0BDEC94
:101820000DF01200680E156E000E146EC6EC0DF071
:1018300015501524BCEC0CF01450BCEC0CF0A8ECCA
:101840000DF0D8801534BCEC0CF0010E98EC0CF0C7
:101850004F6E010E98EC0CF04D6E010E98EC0CF0F2
:101860004B6E010E98EC0CF04A6E010E98EC0CF0E9
:10187000496E010E98EC0CF04E6E000E98EC0CF0D8
:10188000596EBDEC0DF01200000E176E000E166EB4
:1018900013501410D8B421D0010E156E05D0D89075
:1018A00013361436152A00D014BE02D0F8D700D053
:1018B000D890163617361350115C14501258D8A011
:1018C00006D01350115E1450125A168000D0D890D2
:1018D00014321332152EECD700D016C011F017C0F9
:1018E00012F012001A501B10D8B41DD0010E1C6E3D
:1018F00005D0D8901A361B361C2A00D01BBE02D049
:10190000F8D700D01A50185C1B501958D8A005D031
:101910001A50185E1B50195A00D0D8901B321A3238
:101920001C2EF0D700D018C018F019C019F0120002
:10193000116E0BEC0EF0000E126E070E126401D049
:101940000FD0E8EC0DF082A203D0D880133604D07B
:1019500013501324136E00D007EC0EF0122AEDD7AB
:101960001150D8B403D0CFEC0DF003D0F9EC0DF04A
:1019700000D0135000D01200116E000E126E070E30
:10198000126401D011D011AE03D00BEC0EF003D0D5
:10199000FEEC0DF000D0E8EC0DF007EC0EF011506D
:1019A0001124116E122AEBD70BEC0EF0E8EC0DF0BF
:1019B00007EC0EF01200480E186EAA0E166EC6EC5A
:1019C0000DF018501824BCEC0CF01650BCEC0CF0C8
:1019D000A8EC0DF0D8801834BCEC0CF0000E98EC9C
:1019E0000CF0176EBDEC0DF017C014F0156A00D0A6
:1019F000120000EE39F0210EEE6AE806FDE13A0E23
:101A0000F66E1B0EF76E000EF86E00EE5AF010EE3A
:101A100016F00900F5CFEEFFE550E150FAE1000EB7
:101A2000F86E000194EF0AF0B3EC0DF0700ED36E77
:101A30000F0EC16E010E936E94689568F19EA00E14
:101A4000116E860E126E010E136E000E146EF4EC03
:101A50000DF075EC0DF091EC0DF012001150130229
:101A6000F3CF15F0F4CF16F011501402F3501626F0
:101A700012501302F350162615C011F016C012F0C2
:101A800000D01200000E126E000E116E12BE08D0B1
:101A9000680E115C420E1258D8B005D001D003D0A8
:101AA000114A122AF3D71200136E000E126E3A0E6C
:101AB000136006D02F0E136403D0010E126E00D0F7
:101AC00012C011F0113000D01200156EC6EC0DF0EE
:101AD00015501524BCEC0CF01350BCEC0CF0145059
:101AE000BCEC0CF0BDEC0DF01200480E166EAC0E06
:101AF000136E020E146E165065EC0DF0EE0E136EA2
:101B0000165084EC0DF01200146EC6EC0DF014505B
:101B10001424BCEC0CF01350BCEC0CF0BDEC0DF03C
:101B20001200F292F19CF288000ECF6E000ECE6E83
:101B30009E909D80F28CF28E1200A262E22202C27E
:101B4000E0A8906898B030187A10385A424A52FF8C
:101B500007EC0EF00BEC0EF0E8EC0DF0FEEC0DF0E7
:101B600007EC0EF01200000E126E190E116E3C0EF4
:101B7000A7EC0BF0700ED36E120007EC0EF0FEEC2B
:101B80000DF0E8EC0DF00BEC0EF012000BEC0EF08B
:101B9000E8EC0DF0FEEC0DF007EC0EF01200FEECA0
:101BA0000DF0E8EC0DF007EC0EF00BEC0EF012006F
:101BB000F90ECB6E050ECA6E4A0EBB6E3C0EBA6EA7
:101BC0001200116E00D0ACA2FED711C0ADFF120002
:101BD0009486060EE82EFED700D01200000E426E4C
:101BE000F19CCD909E901200E8EC0DF00BEC0EF005
:101BF0001200E8EC0DF007EC0EF0120082929498BF
:101C000000D000D01200000EBA6E819612008290B1
:101C1000949600D01200948800D000D01200000EDC
:061C2000426ECD9012009F
:020000040020DA
:08000000FFFFFFFFFFFFFFFF00
:020000040030CA
:0E000000FF08191EFF8281FF0FC00FE00F40A6
:00000001FF
